:040000006F20802CC1
:10000400000000000000000090000020A204002076
:10001400A9BDF9F3900000200000000000000000DA
:10002400900000209000002000000000000000006C
:10003400900000200000000090000020000000005C
:10004400AC05002090000020420700209000002012
:1000540090000020900000209000002090000020DC
:1000640090000020900000209000002090000020CC
:1000740096050020900000209000002090000020B1
:1000840090000020900000209000002090000020AC
:1000940001A04111B7170040985F3AC6945F3247F8
:1000A400E39CE6FE32454101828073270080218B68
:1000B4009387018809CB7327008023A0E1889843A4
:1000C4005D9B731007800100010037170040930601
:1000D40070052300D704930680FA2300D704010097
:1000E40001008346B70493F6F60DA305D704230055
:1000F4000704732600809443A18AD18E73900680EE
:1001040023A0018801000100937605026384061888
:100114000347A700118B25E773270080218B09CBA8
:100124007327008023A0E18898435D9B73100780A8
:100134000100010037170040930670052300D7041F
:10014400930680FA2300D704010001008346A70028
:1001540093E646002305D70023000704F326008016
:100164009843218B558F7310078023A001880100C9
:1001740001001307004B010001007D176DFF732779
:100184000080218B09CB7327008023A0E18898434A
:100194005D9B731007800100010037170040930630
:1001A40070052300D704930680FA2300D7040100C6
:1001B40001007D892314A700010001000100010052
:1001C40023000704F32600809843218B558F731076
:1001D400078023A001880100010073270080218B80
:1001E40009CB7327008023A0E18898435D9B73109B
:1001F40007800100010037170040930670052300B3
:10020400D704930680FA2300D704010001000100FB
:100214000100B726004013061005A383C6802300FF
:100224000704F32600809843218B558F73100780B1
:1002340023A001880100010073270080218B09CBD2
:100244007327008023A0E18898435D9B7310078087
:100254000100010037170040930670052300D704FE
:10026400930680FA2300D704010001008346B704F3
:1002740093E60608A305D704230007047327008028
:100284009C43A18BD98F7390078023A00188010020
:100294000100828093760504638B06140347A7004C
:1002A400418B25E773270080218B09CB73270080BE
:1002B40023A0E18898435D9B73100780010001002F
:1002C40037170040930670052300D704930680FA7D
:1002D4002300D704010001008346A70093E606012A
:1002E4002305D70023000704F32600809843218BBD
:1002F400558F7310078023A00188010001001307A4
:10030400007D010001007D176DFF73270080218BA4
:1003140009CB7327008023A0E18898435D9B731069
:100324000780010001003717004093067005230081
:10033400D704930680FA2300D704010001009376C2
:10034400F50193E606042314D7000100010001001F
:10035400010023000704F32600809843218B558F66
:100364007310078023A001880100010013076004B3
:100374006310E50473270080218B09CB7327008069
:1003840023A0E18898435D9B73100780010001005E
:1003940037170040930670052300D704930680FAAC
:1003A4002300D70401000100B72600400946B5B573
:1003B40073270080218B09CB7327008023A0E18859
:1003C40098435D9B731007800100010037170040BC
:1003D400930670052300D704930680FA2300D704FC
:1003E40001000100B7260040130620053DB5732720
:1003F4000080218B09CB7327008023A0E1889843D8
:100404005D9B7310078001000100371700409306BD
:1004140070052300D704930680FA2300D704010053
:1004240001008356870093E6060C2314D700C5BB4E
:100434004111814601468145114506C69929F32794
:100444000080A18B9386018889CBF327008023A0A9
:10045400F1889C42DD9B7390078001000100B7176F
:100464000040130770052380E704130780FA2380F4
:10047400E7040100010003C767041367170023831F
:10048400E70423800704732700809C42A18BD98F43
:100494007390078023A0018801000100B24041014C
:1004A40082808146014681451145E526F327008077
:1004B400A18B1387018889CBF327008023A0F188BF
:1004C4001C43DD9B7390078001000100B7170040B7
:1004D400930670052380D704930680FA2380D704FB
:1004E40001000100FD562396D70223800704F3265A
:1004F40000801C43A18BD58F7390078023A00188B3
:1005040001000100F3270080A18B89CBF327008031
:1005140023A0F1881C43DD9B739007800100010038
:10052400B7170040930670052380D704930680FA1A
:100534002380D7040100010083C6670493E61600F4
:100544002383D70423800704F32600801C43A18B54
:10055400D58F7390078023A001880100010001A0BA
:10056400BD473305F50201007D1575FD82804111FB
:1005740022C426C206C6AA84014463179400B2406A
:10058400224492444101828005041305803E4204C2
:10059400C13F4180DDB7B71700401307000323882C
:1005A400E702854723AAF18C73002030411122C64B
:1005B40037270040834767001384818D858B6385CB
:1005C400071085472303F7008347040093F7F70FC9
:1005D400B5C7B717004003A7470C9387018E93163E
:1005E400070163C706109843050723A0E18E9443CF
:1005F40025476375D7048C439387C18E9043175561
:1006040002E01305E549974002E0E78040D723A6BE
:10061400018E8547238EF18C371700408327870A84
:1006240091665146B58F2324F70A894503C5E184B1
:10063400975000E0E78080BF238C018C83C7918DA5
:10064400C1C7B717004003A7470C9387418E418B5E
:100654004DEB9843050723A2E18E94432547637528
:10066400D7068C439387018F9043175502E01305F7
:100674006545974002E0E78080D023A8018E854736
:10068400A38EF18C93870184984349E7054723A0FF
:10069400E184984359E3371700408326870A21668B
:1006A400D18E2324D70A8326C70A93E6061023266D
:1006B400D70A8C43175502E013058543974002E09F
:1006C400E780E0CBA38C018C8347040037270040EC
:1006D40093F7F70F81E783C7918DB9CF834707005D
:1006E40093E747002300F7003244410173002030B0
:1006F40023A0018E1387C18E1843050723A6E18E1C
:10070400FDB523A2018E1387018F1843050723A883
:10071400E18EA1B723A00184ADBF37170040832623
:10072400C70A2166D18E2326D70A8326870A93E631
:1007340006102324D70AB5BF8347070093F7B70FE2
:1007440055B7371700408357E709C207C18763DDF0
:100754000702E177231FF7081305E002974002E040
:10076400E780E0C583C7818D85E38546238CD18CE2
:1007740023A0018EB727004003C707001367470073
:100784002380E7002383D700371700408357E70906
:10079400C18B85CFC147231FF7081305D0029740AB
:1007A40002E0E780C0C183C7918D85E38546A38CB1
:1007B400D18C23A2018EB727004003C7070013671B
:1007C40047002380E7002383D700730020304111C2
:1007D40006C6AD25FDBF2303048015472303E4802B
:1007E40001002302A480828083076480E3CE07FE95
:1007F40023030480828083076480E3CE07FE0345DD
:100804004480828083076480E3CE07FE2302A480B1
:100814008280411126C44AC24EC006C61377F50B26
:10082400AD47AA892E8995446306F70019456537B3
:10083400653F8D444E854537FD59FD146398340159
:10084400B240A244124982494101828013550901F0
:100854001375F50F453F2209CDB7011126CC06CEFD
:10086400B704080051371545BD37713769372AC6B3
:10087400A53F32459377150089EB13651500137571
:10088400F50FF240E24405618280FD14E9FC014564
:10089400CDBF397126DC4ADA4ED852D656D45AD254
:1008A4005ED006DE62CE66CCB7E700E07D5783AA51
:1008B400070022C603AA470023A0E71823A2E718CB
:1008C400B7170040130770052380E704130780FA65
:1008D4002380E70483C74704930B75FFB684E207BC
:1008E40093FBFB0F8546AA892E8B3289372400405F
:1008F400E187015763FA76016308D5008946130737
:1009040000026313D5000157D98F93F7F70FB71C73
:1009140000402382FC0411472303E4801305F00FF5
:100924005D3D094CD135636D7C11B7050700DA953F
:1009340037870700795563F2E504B3879500636E42
:10094400F702370B0800A94733EB65016399F906F1
:1009540089E48144513D26850DA0DA850945553D3C
:1009640005090345F9FFFD14050B693D81C493771F
:10097400FB0FFDF7DD3569FD7D55B7170040130703
:1009840070052380E704130780FA2380E70403C774
:100994004704418B2382E704F250B7E700E023A029
:1009A400571123A24711E25432445259C259325AC0
:1009B400A25A125B825B724CE24C21618280A54791
:1009C4006395F90685691309F00FB3069900B374AA
:1009D4002B01B6941349F9FFB3749900856B3379ED
:1009E4006901416B9387F9FFB3F7270199E363FC2E
:1009F400340193D94900C147E3E637FF99BF05693C
:100A0400C1697D19D9B71305800D63886901130580
:100A140000026384790113051008CA85DD3B353D66
:100A240021DD4E99B3843441D9B7DA852D45D533C8
:100A3400CA94E30099F205097D3BA30FA9FED5BF33
:100A44009387F9FF93F7F70F6361FC0C83C71C04CA
:100A540013073008631FF70437070800636BEB04C0
:100A6400B3079B00B706100063F5D704334BEB00C4
:100A740089476393F9068980D549E38C04ECDA85C8
:100A84000945413B11090327C9FF91472320E4800D
:100A940003076480E34E07FE23033481FD17EDFB57
:100AA400FD14110B81C49377FB0FE9FF7D3371F5BE
:100AB400E1B5B717004003C75704B7070800137719
:100AC400070219E3B78707007955E378FBEA330790
:100AD4009B00E3FFE7F855B58547E382F9F2DA8531
:100AE4002D45053B9389F4FFE38504E6293393F709
:100AF400390091EB832604800327090093074900FA
:100B0400E39AE6E43E89CE84F1BFB5476396F900E3
:100B14001305900BC93135BDB1471305B00AE38BFA
:100B2400F9FE99476391F904B7050800B365BB0062
:100B34002D45C53181448D4BA149753963967401A6
:100B4400832704802320F9008504E39834FF832756
:100B5400048013172B01635507002312F900D5BB3A
:100B64002322F900FDB39D476399F90281451305DA
:100B7400B0044531BD442320090023220900FD5956
:100B84009D3993F77400CA9703C70700FD14398D84
:100B94002380A700E39634FF6DBBA1476392F90459
:100BA4006D398144630D0B008D479304C0036308C2
:100BB400FB009304000563048B0193044004137544
:100BC400C507E30895D81945393139390545213127
:100BD40026850D3909453D314931E31C05D669BBEC
:100BE40091476399F90013056006F536F53E130540
:100BF40090090DB7E38F09D4F154A9BB19CD91CD58
:100C040009CE81473387F500834607003307F50093
:100C140085072300D700E317F6FE828019C991C91E
:100C240009CA910583A7C5FF11057D16232EF5FE7C
:100C3400C5BF828001C919C62A960505A30FB5FE52
:100C4400E31DA6FE828081473307F50003070700F2
:100C540019E33E8582808507C5BF01112E8626CA09
:100C6400AA84131506019305F004418122CC06CE13
:100C740032C6EF00B0562A8401C53246A685BD3F70
:100C84002285F2406244D24405618280854715C1C1
:100C94008DC105C28147B306F5003387F50083C6CD
:100CA4000600034707006398E6008507E315F6FE90
:100CB40085473E8582808147EDBF9307F6FFBE9549
:100CC4002A966313C5008280FD1583C715000505A8
:100CD400A30FF5FEFDB7AA87014581CF09CE3E9645
:100CE400850703C7F7FF6317B700E39BC7FE0545F6
:100CF40082808280014582807971973700009387D2
:100D0400E75F22D4804306D626D24AD04ECE52CCB8
:100D140056CA5AC85EC679C0B7C4C901014B9739CF
:100D240000009389295D9384F437173A0000130A6D
:100D34002A5D973A0000938A2A571739000013094D
:100D440069608357240095E35C44631D0B001737E7
:100D540000002325F75A832BC4002285EF00305569
:100D64005E84B9A82326FB00FDB783A709008297F8
:100D74001C443307F5406376F500032749001D8FB3
:100D84002A9763E2E4089737000023A707528355A4
:100D9400240003450400974000E0E78020315C40D4
:100DA4005844A1CB0C4403264900AE97BE8663E4A5
:100DB400B70063E4C700B386C74014C4228B3A84E7
:100DC40049F0973700009387274E9C4B094763727D
:100DD400F706F917173700002320F74EB2502254B4
:100DE40092540259F249624AD24A424BB24B45618B
:100DF400828063170B009737000023A1E750A1BF3F
:100E04002326EB0089BF03274A0209CF63EFA7001B
:100E14003385A74083A70A016376F500973700005E
:100E240023ACA748228B404461BF03274900BA97EB
:100E3400C5B79737000023A107484DB7411122C415
:100E440017340000130404491C4006C626C24AC0D5
:100E540091C782979737000023AE07469737000063
:100E640083C79767858B973400009384A46695C3E2
:100E740097370000A382076683C774001547637A17
:100E8400F700A12B83C77400F5178A07A2979C4328
:100E940082971C4491C38297173900001309C945EE
:100EA4000327090017360000034616409737000051
:100EB40083C7873F93961700BA9683D60600D5CE8C
:100EC4009737000083C7473E63E3C70C973700009A
:100ED400238C073C1C40639D07129737000083C78F
:100EE400F75F91CF83C7740093F7F70F89EB9737B8
:100EF4000000A385075E974001E0E780207F9737D5
:100F040000009387273F9C436384071097370000B2
:100F140093874743DC4317370000232FF738E93B17
:100F2400973700009387C73DDC53FDC31737000094
:100F340013078737184B9737000083C7B73D63699A
:100F4400F70C83C7740015476364F70C97370000E8
:100F540083C7075D918BCDEF032609009736000008
:100F640083C6963463CCD70A2244B24092440249E1
:100F74004101174300E06700635E850793F7F70FAD
:100F8400973600002382F632E3E2C7F215BF8607E4
:100F94003E978355070023100700973700002399D5
:100FA4000734973700009387A7329C431735000016
:100FB4000345852F13172500BA979C4382979737CB
:100FC400000083D7E732173700000347E72D93C7A4
:100FD400F7FF7D8D93171700032709003E9783576A
:100FE40007005D8D2310A7009737000083C7C72B28
:100FF40091C78507173700002308F72A1737000021
:101004000347872A9737000083C7172AE370F7EC52
:10101400B24022449244024941018280139717004E
:101024003297035707006DF785072DBFAD6737C7A4
:101034000040BD072326F7200F100000973700005B
:1010440093878726C84F83278726BD66BD0693C727
:10105400F7FF99836A052326D7205D8D828041118D
:10106400B7170040985F3AC6945F3247E39CE6FEA8
:101074003245410182801305F00F828001119737B8
:1010840000009387275522CC03A4070C26CA06CE5A
:101094002AC42EC6854419E40145F2406244D24470
:1010A400056182808347910003471400858B6304A4
:1010B400F7000044CDB719469305A1001305240099
:1010C400F136E31895FE0545C9BF1737000013072D
:1010D400673F1C439306001094C301000100010004
:1010E40001001C4323A00700834615000348250084
:1010F400A2064208C29603480500C296034835007A
:101104006208C29694D78346550003486500A20638
:101114004208C29603484500C29603487500620817
:10112400C296D4D7834695000348A500A206420878
:10113400C29603488500C2960348B5006208C29669
:1011440094DB8346D5000348E500A2064208C29614
:101154000348C5000345F500C2966205AA96D4DB90
:1011640083C6150003C52500A2064205AA9603C539
:101174000500AA9603C535006205AA9694CF83C6D6
:10118400550003C56500A2064205AA9603C545009D
:10119400AA9603C575006205AA96D4CF83C69500A6
:1011A40003C5A500A2064205AA9603C58500AA9612
:1011B40003C5B5006205AA9694D383C6D50003C5BA
:1011C400E500A2064205AA9603C5C50083C5F5003D
:1011D400AA96E205AE96D4D3D443F59AD4C3D443A5
:1011E40093E61600D4C3944393E6160094C3BA87D7
:1011F4009443D842058B59E3984E01452300E600F9
:101204009843184F2183A300E6009843184F418365
:101214002301E6009843184F6183A301E6009C4331
:10122400D84F2302E600D84F2183A302E600D84F0B
:1012340041832303E600D84F6183A303E600985358
:101244002304E60098532183A304E60098534183C2
:101254002305E60098536183A305E600D8532306CB
:10126400E600D8532183A306E600D853418323071D
:10127400E600DC53E183A307F600828001008DBF02
:1012840017370000130747241443411122C49C5EFE
:101294004AC006C6998326C2858B3A841739000052
:1012A40013094922D1CB9C5E973400009384842295
:1012B40093F7F7F99CDE17370000034707229307DB
:1012C4000008631BF700832709009C4393F7070476
:1012D400173700002303F72083C7040093F707049C
:1012E4009DC3973700009387E7009C438297973705
:1012F400000023A9A71E83C7040093F7F70B173731
:1013040000002309F71C83C7440093F707048DE703
:10131400854717370000A301F71C97370000938710
:10132400271D9C43096798C7130700FC97360000E4
:101334002384E61AD844F8D31C40985F1183058BA4
:1013440009CB985F3D9B98DF0547973600002385BE
:10135400E618985F1D83058B11CB985F1377F7F719
:1013640098DF8547173700002308F71683270900FD
:10137400D8430583058B19C7D843759BD8C3D84375
:10138400799BD8C3B24022449244024941018280ED
:10139400397106DE16DC1ADA1ED82AD62ED432D2D9
:1013A40036D03ACE3ECC42CA46C872C676C47AC259
:1013B4007EC0F935F250E2525253C2533255A2550F
:1013C400125682567247E2475248C248324EA24EE3
:1013D400124F824F216173002030973700009387AA
:1013E40027119443973700009387C70E03C707005C
:1013F400058B11CB973700002380070E9737000029
:10140400A38C070C828003C71700058B65F7F8527D
:1014140071FF83C75700DDB7173800001308C80AE7
:10142400032708001C5F9583858BD1E709C61C5BE5
:10143400BD832300F60085CA83270800985B46070E
:10144400935767016356070093E707C0C207C18338
:1014540003970600C207C18709C7BA970947B3C7EC
:10146400E7022390F60085CD834715008DCB973690
:10147400000083C6860693F60604138797008947FF
:101484008DCA3A9503470500854699471376F706B2
:101494006311D60262076187B947634C070083274B
:1014A40008009C5FED838D8B17370000A309F702BA
:1014B40081473E8582808547EDBF411122C406C61F
:1014C400173400001304C40218403DE9AE87745376
:1014D400FDFE3E85B28597370000238E07FE9740B8
:1014E40001E0E78020F4973700009387E7FD9C43F1
:1014F400B70680009843558F98C3D857719BD8D7A7
:1015040097370000A38A07FC97370000A38407FCE1
:101514001C40094798C3144017370000130787FB82
:1015240083472700858B89EB83473700858BD9C791
:1015340097370000238207FAB24022444101828097
:101544008D476310F502973700009387E7F79C43B4
:10155400B70680009843558F98C3D857719BD8D746
:101564005DBF8547E319F5FA5447F977FD17F58F01
:101574005CC70F1000001C40096798C7130700F8E8
:1015840017360000230AE6F4173700001307C7F3E1
:101594001043184231830D8B11E713076019F8D3F8
:1015A400D4C795BF1842094631830D8B6315C70014
:1015B4001307E043EDB71307E01BD5B7FC52ADF3B7
:1015C400A5BF5D71A2C4A6C22A84130680022800A6
:1015D400AE849305100886C6CAC04EDE52DCEFF016
:1015E4006FE53545974001E0E780E02217330000BE
:1015F400130383ED832703009376F41F173E000043
:10160400130E4EF423A40700984B973E0000938ECC
:101614002EEE370FFCFF1367F70398CBF84F130533
:1016240010F8B7020400137707E0558FF8CF9843FA
:10163400F576FD16758F98C39843B7063300930368
:1016440080251377F7E798C3984311497D1F1377D3
:10165400F7E71367071098C303270E008549930F14
:1016640080021C47D58F1CC783A70E001307900D5B
:101674003400B8CB014793553700A69583C70500BE
:1016840013767700B3D7C740858BE1C38327030064
:1016940083280E00239C07042390070603A8C8028E
:1016A4001378D8FF23A6080383A807001378F70745
:1016B40093F808F833E8080123A0070103A84702B8
:1016C4003368580023A2070383A80E00014823A20D
:1016D400780603DA07066307480303A80703038AA7
:1016E40006001358F80062081358884163580A0129
:1016F40003A807031358F8002380060103D807063C
:101704001378F80F03AA480663060A0003DA87056C
:10171400E37F49FB03A847023378E80123A20703C8
:1017240083870600635CF40003C805003396C90090
:101734001346F6FF337606012380C5003E8663D345
:10174400A7002A8613158601618505071377F70F0D
:101754008506E312F7F3B640264496440649F25947
:10176400625A6161828097360000938666D89C42F3
:10177400D847131617016355060298471316170125
:10178400635006027D57B8D7173700001307C7B157
:10179400584F0507173600002326E6B2116798C78D
:1017A40098470D83058B1DC3173700000347A7D245
:1017B4001367170017360000230FE6D0130700F84D
:1017C40017360000230AE6D0214798C79847058BAF
:1017D40009CF173700000347F7CF136717001736F1
:1017E4000000A309E6CE054798C798470983058BEF
:1017F40009E798470583058B31CF984717360000D2
:10180400130646CD17350000130505CC0983058B57
:10181400630307101841184331830D8B75EBAC4BF0
:10182400184E93F5050203471700CDCD79EF130742
:101834007006D8CF03470600136717001736000059
:10184400230AE6C8114798C718415C57F19B93E7F0
:1018540017005CD79C4298479316370163D606025B
:101864009736000083C686DEC18A17370000130747
:1018740067D6C5CE0347870713670702973600006C
:101884002386E6DC056798C798479316270163D13A
:10189400060217370000034727C4620761876357AE
:1018A40007000547973600002388E6C2096798C7F2
:1018B40098479316070163D606029736000083C63D
:1018C400F6D8858A173700001307C7D0ADCE034773
:1018D40097071367270097360000A389E6D6216788
:1018E40098C7828029D785456315B7001307B006CA
:1018F40089B789456315B7001307F0061DBF8D45E9
:101904006315B700130730072DB71307500715B732
:101914001307600739BF03473600136717001736EC
:101924000000A30AE6BA094739BF83468707094678
:10193400BD8A6388C600034787078D463D8BE31342
:10194400D7F4114725BF83469707918AC9DA03471D
:1019540097071367870041B7397106DE16DC1ADA78
:101964001ED82AD62ED432D236D03ACE3ECC42CA53
:1019740046C872C676C47AC27EC0F533F250E252CB
:101984005253C2533255A255125682567247E247F9
:101994005248C248324EA24E124F824F2161730008
:1019A4002030973700009387A7B4984385679387BF
:1019B40007777CD3973700009387C7B89C4383A6E7
:1019C4000709139656006358060083A60709139661
:1019D4006600634406007453FDF2828071C5AA87D1
:1019E4000145E9C58D07C207C183F19BC207C183C5
:1019F40013074003636FF70217370000130747BD4F
:101A0400084317370000130727BC14436398A60242
:101A1400173700001307C78E185B014541CB4111EE
:101A2400C20706C60545DD8D0297B2400145410156
:101A3400828017370000130767B9D9B703576500C9
:101A440035E303574500636FF704B306F7402146B7
:101A5400637CD60203280500938687001D8FAA960F
:101A6400611717360000035686842392E60023A0EC
:101A740006012393060014C12312F500130786FF01
:101A8400973600002395E6822313B50097350000AE
:101A940083D5E581B387F540173700002319F78014
:101AA4002105828008419DB70145828082800DC155
:101AB400973700009387C7B103A307009737000047
:101AC400938787B083A8070081469A8763E3170149
:101AD400828003A80700636DF50A636BA80A138765
:101AE4008700E367E5FE03D66700216705076317F0
:101AF400E60003C781970507238CE196972500002C
:101B04009385857A03D6470003D76500239307009E
:101B140032974207418317250000231AE578638A28
:101B2400670217350000130565AA08416303F5022F
:101B340003D5660019ED83D7460023A006012107CB
:101B44003E9621062392C600972700002391E7764C
:101B5400B6879843E30E17F797360000938606A7D7
:101B64009442E307D7F683566700BDF283D6470055
:101B7400035647001843A106B2962392D70098C390
:101B840083D76500A107172700002312F77282800C
:101B9400BE86C28725BF0327851163020712411140
:101BA40022C406C68347C5008345E5042A8493F707
:101BB400C70F2306F500834697000356C700139505
:101BC4008601618563F2C508635B050603458700EA
:101BD40093F6F607A304D700054693E6270063149B
:101BE400C50093E617002306D4005C4389075CC351
:101BF400A30AB400032504112E864C430905EFE023
:101C0400FFFF8327841103465401D44303D7C7003D
:101C1400B296118FD4C32396E7008947A30DF4002D
:101C2400034764039727000083C7A76E6378F7040C
:101C34008347C40093E707012306F40081A093E7D8
:101C440017002306F4006DB79376F60F635D050263
:101C540003458700854513E627006314B50013E6A2
:101C640017002306C400A30AD400A3040700854771
:101C7400A30DF400832784119C43DDF3B240224476
:101C840001454101828093E717002306F400A30A6B
:101C9400D400A3040700032504114C430905EFE015
:101CA400FFF58327841103465401D44303D7C700A7
:101CB400B296118FD4C32396E7008D4755BF0545CF
:101CC4008280973700009387A7A39C43411122C4C5
:101CD40006C6858B2A84C5EF4165130525F597F063
:101CE40001E0E780801645C58347A5002315F5006C
:101CF40083270412BDE72320A4122322A4128547BC
:101D04002311F4042320050083476401544123165E
:101D1400F5000347D4002304E5000547A304E500C8
:101D2400172700001307077B184F13851702158127
:101D34001C437D151375F50F9CC25C43DCC21C4724
:101D44009CC65C47DCC61C4B9CCA5C4BDCCA1C4F63
:101D54009CCE5C4FDCCE19CD938606021307070296
:101D6400C1BF8327441288C3835724042322A412A7
:101D7400850779B79737000083D7478685071737D4
:101D84000000231DF784B24022444101828083472E
:101D9400C40023090400054593C747002306F40043
:101DA400DDB78347850193F7E70FD5EF83479501A7
:101DB400DDEB034625018346C50009CA8345650357
:101DC400172700000347F75463E7E50013F70601FC
:101DD40041CF014709C6C18A0357651C81C6835692
:101DE400A51C369751C31307C712172500000355C6
:101DF400E555B335A70237460F00411113060624F3
:101E0400814622C426C206C67D543305A702972004
:101E140002E0E780E0119727000083C7F74FB384FF
:101E2400A700972700009387E77A03A787098327EA
:101E3400070963F387003E84184375FB9727000066
:101E44009387474B9C43829781476364A400B307FD
:101E5400A440B2402244B3B7970093C717009244FA
:101E64003E854101828081473E858280972700001C
:101E74009387076898437C53FDFF8280797126D24B
:101E840006D622D44AD04ECE52CC56CA5AC85EC6C2
:101E94008347550303447513AA843E941374F40FC3
:101EA4009307400263F687001304B4FD1374F40F20
:101EB40003AA841383AAC413A38B84122286528593
:101EC400D685972002E0E7802001058915E503CB3C
:101ED400D41201498149337B6403930B50024A862F
:101EE4005285D685972002E0E78000FF058915C555
:101EF400639169031374F90F238B8412B250225433
:101F040092540259F249624AD24A424BB24B456159
:101F140082808509E20993D989410509E31179FD94
:101F2400E1BF8327850903560504797193D6070118
:101F3400BD8EC206C182358E1357764093575640E4
:101F4400898B058B5D8F93573640918B5D8F9357AB
:101F54001640A18B5D8F93171600C18B5D8F93176D
:101F6400360093F707025D8F93175600935586004A
:101F740093F707041E065D8F1376F60F518F93D7E0
:101F8400554013D63540118A898BD18F13D67540AD
:101F9400D18F13D61540218AD18F13961500418A0B
:101FA400D18F1396350013760602D18F1396550000
:101FB400137606049E05D18F93F5F50FCD8FA207F6
:101FC40045465D8F3307C70222D42A8426D252CCD9
:101FD40056CA032A8413832AC4135AC806D63697CA
:101FE4004207418393577740135557400989858B9E
:101FF400C98F135537401189C98F1355174021894B
:10200400C98F131517004189C98F1315370013752C
:102014000502C98F131557009355870013750504DE
:102024001E07C98F1377F70FD98F13D5354013D7F0
:1020340055401189098B498F13D57540498F13D5A4
:1020440015402189498F139515004189498F1395AE
:10205400350013750502498F139555001375050452
:102064009E05498F93F5F50F4D8F2207D98FB387BE
:10207400C7024AD04ECE5EC662C4B697C207C183B9
:1020840013D7774013D557400989058B498F13D54A
:1020940037401189498F13D517402189498F1395EA
:1020A40017004189498F1395370013750502498F2D
:1020B4001395570093D58700137505049E07498F20
:1020C40093F7F70FD98F13D5354013D7554011899E
:1020D400098B498F13D57540498F13D51540218934
:1020E400498F139515004189498F13953500137550
:1020F4000502498F13955500137505049E05498FF4
:1021040093F5F50F4D8F2207D98FB387C7021306B6
:1021140050025285D685B697BD8E93940601C18030
:1021240033F6C402137BF60F972002E0E780C0DA8F
:1021340005890DED8347D41201498149B38497027F
:10214400130C5002C1804A865285D685972002E03E
:10215400E78080D80589937BF90F11C56386340322
:10216400850993F9F90F0509E31F89FD230B64130E
:10217400B250225492540259F249624AD24A424B12
:10218400B24B224C456182805E8BCDB7797122D4EB
:1021940006D683C735002E8423160100A307F10059
:1021A40083C74500100802C02307F10083C7550008
:1021B4008A8502C2A306F10002C402C802CA02CC84
:1021C40002CEEFE09FF00347F1018347040001458D
:1021D4006310F7020347E1018347140001456319C3
:1021E400F7000345D101834724001D8D13351500E5
:1021F400B2502254456182800111972700009387D1
:10220400673D22CC03A4870C26CA4AC84EC606CE14
:10221400AA8413092500854915C083C71400034700
:102224003400858B6304F700405CFDB719469305C1
:1022340044004A85EFE09FA5E31835FF2285F2406C
:102244006244D2444249B2490561828041119727D0
:1022540000009387273822C403A4870C26C24AC0EF
:1022640006C693042500054901E82285B2402244AC
:102274009244024941018280A6851305A40239379C
:10228400E30525FF405CCDB74111972700009387F4
:10229400673422C403A4870C26C24AC006C693042A
:1022A4002500054901E82285B240224492440249AE
:1022B40041018280A6851305A401C93DE30525FFDC
:0422C400405CCDB7F6
:1022C80097110020938181D417610020130101D355
:1022D8001305400097E5FF1F938545D21706002098
:1022E800130606FE63FAC5008322050023A05500E5
:1022F80011059105E3EAC5FE17450200130585059A
:10230800970500209385C5FB1386018863FAC500ED
:102318008322050023A0550011059105E3EAC5FEB7
:1023280013850188972500209385453E6377B5007E
:10233800232005001105E36DB5FEFD42739002BC34
:102348008D4273904280930280087390023097E226
:10235800FF1F9382A2CA93E23200739052309722F1
:1023680000009382427673901234730020303D430C
:102378002A876373C3029377F700BDEFADE59376C1
:1023880006FF3D8ABA960CC34CC30CC74CC741071D
:10239800E36BD7FE11E28280B306C3408A06970238
:1023A800000096966780A6002307B700A306B7002B
:1023B8002306B700A305B7002305B700A304B70099
:1023C8002304B700A303B7002303B700A302B70091
:1023D8002302B700A301B7002301B700A300B70089
:1023E8002300B700828093F5F50F93968500D58D6D
:1023F80093960501D58D61B7939627009702000043
:1024080096968682E78086FA9680C1171D8F3E963B
:10241800E374C3F8A5B7B7170040854603C8870516
:1024280083C89705238CD70403C797051378F80F3B
:1024380093F8F80F13678700A38CE70403C7970581
:102448001377B70FA38CE704238DD7043717004001
:102458008347A7051306A705858BFDFB056541473F
:10246800B7150040054E1303F5FF2300C601834648
:102478000600858AEDFE83D6C5057D17420793C6FB
:10248800F6FFB3F666004183B69765F3A10791831B
:10249800130505801D8DA38C15054205238C0505A4
:1024A80041858280B717004003C777051A05920552
:1024B8004D8D1377E70F13653500A38BE70413756C
:1024C800F50FA38CA7048280B717004003C77705D0
:1024D8001377E70FA38BE704130700F8A38DE7042E
:1024E8003D47238CE70413075003A38CE70482803D
:1024F8000547B7170040238DE70437170040834787
:10250800A705858BEDFF0355C705520551818280CC
:10251800B717004083C7E7020D8993F7C70FC98F24
:1025280073270080218B9386018809CB732700804D
:1025380023A0E18898425D9B731007800100010089
:1025480037170040130670052300C704130680FAE6
:102558002300C704010001002307F7022300070432
:10256800732700809C42A18BD98F7390078023A08A
:10257800018801000100828041112A83014E930ED7
:10258800407E130F0019930F400663E66E149308FC
:10259800001913034006B3781503854E0D4FA14F5C
:1025A800337365020D891335150063E0BE161308F1
:1025B800F6FF794672984208135808013307C70294
:1025C80013D61700BE0732976146B3F6C602130644
:1025D8008070B386C6023697A166F58F42075D8F75
:1025E800B716004083C7F60293F70708A307F10060
:1025F8000346F10083C7F60293F70708E394C7FE82
:102608008347F100B716004093F7F70F6389071463
:10261800F3270080A18B9386018863980714010033
:102628000100B7170040130670052380C70413067E
:1026380080FA2380C7040100010023AA070303C608
:10264800170313660608A388C702238007047326A6
:1026580000809C42A18BD18F7390078023A00188B2
:10266800010001001166B71500407D16DC59C85DF0
:10267800A98FF18FE5FFF3270080A18B89CBF32782
:10268800008023A0F1889C42DD9B739007800100A5
:102698000100B7170040130670052380C70413060E
:1026A80080FA2380C70401000100D8DB03C71703A1
:1026B80013670704A388E7022380070473270080B1
:1026C8009C42A18BD98F7390078023A001880100B9
:1026D8000100410182807D133368E3039308E0160B
:1026E800630E08003368F3039308D01663080800E4
:1026F8009378330093B818009388D81633081E01CE
:10270800131E0801135E0E0149B56393E5030548DE
:10271800638608000148630303002A8871087298D9
:10272800FD15131E0801C205135E0E01C181B5BD5A
:1027380013F8150063F4BF007908D5B713381800EB
:10274800E5BF83C7F60293F70708A307F10003461E
:10275800F10083C7F60293F70708E394C7FE83479F
:10276800F10093F7F70FF1DF65B5F327008023A099
:10277800F1889C42DD9B7390078055B55971E2C47E
:1027880086D6A2D4A6D2CAD0CECED2CCD6CADAC8E1
:10279800DEC6E6C2EAC06EDE2A8C02D6EF005029F9
:1027A800F3270080A18B138D018891CBF32700803C
:1027B80023A0F18883270D00DD9B7390078001001B
:1027C8000100B7170040130770052380E7041307BB
:1027D80080FA2380E7040100010003C7F70213779A
:1027E800770FA387E70203C7F70213678700A3875A
:1027F800E702238007047327008083270D00A18B3D
:10280800D98F7390078023A0018801000100F32766
:102818000080A18B91CBF327008023A0F188832728
:102828000D00DD9B7390078001000100B717004081
:10283800130770052380E704130780FA2380E70451
:102848000100010003C7E7021377C70F2387E702D8
:1028580003C7E702136717002387E70223800704EB
:102868007327008083270D00A18BD98F7390078071
:1028780023A0018801000100130780C13347E50246
:102888009169938709E8130650023D69B7440F0020
:1028980093840424856B130BA004014A814A130412
:1028A8007005FD19B347F5023307C7023EC2930707
:1028B80009A61309803E3347F7023AC43347250374
:1028C80005493319890113593940334595029384D1
:1028D8000BFAB3948401811B3306C702B346F60290
:1028E8003309E90236C6330B670313076055B3048F
:1028F8009502130500103309E902B346FB02130BD6
:1029080080FAB3C4A40236C8B347F90293963400D8
:102918003719004036CC930409043ECA7326008058
:10292800218A11CA7326008023A0C18803260D00BE
:102938005D9A7310068001000100930770052380DB
:10294800F400238064010100010003463905137671
:10295800860FA309C9040346390513661600A3099F
:10296800C904238004007325008003260D00218AF2
:10297800498E7310068023A0018801000100916C24
:10298800E17D73260080218A11CA7326008023A066
:10299800C18803260D005D9A7310068001000100AE
:1029A800930770052380F40023806401010001006F
:1029B8000346390513660602A309C9040356090527
:1029C800336696012318C904035609053366B60110
:1029D800420641822318C90423800400732500801D
:1029E80003260D00218A498E7310068023A00188D2
:1029F800010001000346390513760602630706162F
:102A080003463905218A6DDE6810EF0090067326AB
:102A18000080218A11CA7326008023A0C18803265A
:102A28000D005D9A73100680010001002380840068
:102A38002380640101000100034639051376F60D71
:102A4800A309C9040346390513660602A309C90484
:102A580003560905336696012318C9040356090568
:102A68003366B601420641822318C9042380040054
:102A78007325008003260D00218A498E7310068075
:102A880023A00188010001000346390513760602D8
:102A98006309061003463905218A6DFE97D0FF1F8A
:102AA800E780E05E2A8632CE97D0FF1FE780205E5F
:102AB8007246E30AC5FE0356090532553366960188
:102AC8002318C904EF00A07C03463905218A6DDE6E
:102AD8000355090503462905924733F5A9003386AE
:102AE800C90232951D8DA24763D5A700B247634638
:102AF800F50E09466365560FC247850A1316150079
:102B080093FAFA0F3346F6026354A03A05060945CC
:102B18003346A60273250080218911C973250080D8
:102B280023A0A18803250D005D997310058001007D
:102B38000100238084002380640101000100035503
:102B4800C9022A96420641822316C902238004003C
:102B58007325008003260D00218A498E7310068094
:102B680023A001880100010029BD73260080218A65
:102B780011CA7326008023A0C18803260D005D9A20
:102B88007310068001000100238084002380640103
:102B9800010001000346390513660602A309C904AA
:102BA80025BD73260080218A11CA7326008023A0C0
:102BB800C18803260D005D9A73100680010001008C
:102BC8002380840023806401010001000346390545
:102BD80013660602A309C90451BDE38F0AF07326E0
:102BE8000080218A11CA7326008023A0C188032689
:102BF8000D005D9A73100680010001002380840097
:102C08002380640101000100034639051375FC0F98
:102C18001376860FA309C90403463905498EA3090B
:102C2800C904238004007328008003260D00218A2C
:102C3800336606017310068023A001880100010095
:102C4800034639051D8A6317862773260080218A63
:102C580011CA7326008023A0C18803260D005D9A3F
:102C68007310068001000100238084002380640122
:102C7800010001000346390511651376F60DA30915
:102C8800C9040346390513660602A309C904035695
:102C98000905498E2318C904035609052165498E7B
:102CA8002318C904238004007325008003260D001F
:102CB800218A498E7310068023A001880100010033
:102CC8000346390513760602630E062003463905C6
:102CD800218A6DDE6810712B73260080218A11CA43
:102CE8007326008023A0C18803260D005D9A731007
:102CF8000680010001002380840023806401010014
:102D080001000346390511651376F60DA309C904B8
:102D18000346390513660602A309C90403560905C3
:102D2800498E2318C904035609052165498E2318BD
:102D3800C904238004007325008003260D00218A1E
:102D4800498E7310068023A0018801000100034604
:102D58003905137606026303061C03463905218AE2
:102D68006DFE97D0FF1FE7808032AA8C97D0FF1F97
:102D7800E780E031E30C95FF035609051165498E9C
:102D880032552318C904212303463905218A6DDEEB
:102D980073260080218A1385018809CA732600805A
:102DA80023A0C18810415D9A7310068001000100BC
:102DB8002380840023806401010001000346390553
:102DC8001376F60DA309C904238004007328008034
:102DD8001041218A336606017310068023A00188FA
:102DE800010001000358090503462905E24733F8A5
:102DF80009013386C90232983308F8401306800C5B
:102E08003306C802D2473346F60263550015050655
:102E18000948334606036351C0140358C90293088E
:102E2800F00F13585800329863D6081F0946637389
:102E38004619F3270080A18B89CBF327008023A0B4
:102E4800F1881C41DD9B7390078001000100371752
:102E58000040930770052300F704930780FA2300C6
:102E6800F704010001008356C70289678117D58FCF
:102E7800C207C1832316F7022300070473270080C3
:102E88001C41A18BD98F7390078023A00188010072
:102E98000100B650265496540659F649664AD64A51
:102EA800464BB64B264C964C064DF25D65618280CA
:102EB8007D16B1B973260080218A11CA7326008055
:102EC80023A0C18803260D005D9A731006800100B7
:102ED800010023808400238064010100010003466F
:102EE80039052DBB73260080218A11CA73260080FC
:102EF80023A0C18803260D005D9A73100680010087
:102F0800010023808400238064010100010003463E
:102F1800390513660602A309C90469B3732600803C
:102F2800218A11CA7326008023A0C18803260D00B8
:102F38005D9A7310068001000100238084002380BD
:102F48006401010001000346390513660602A3095E
:102F5800C904C5B37D166DBD55CE0358C902B30863
:102F6800C040135858006357180B09466374460548
:102F7800F3270080A18B89CBF327008023A0F18859
:102F88001C41DD9B7390078001000100B7170040CA
:102F9800130770052380E704130780FA2380E704EA
:102FA8000100010003D7C7027D8B2396E702238027
:102FB8000704E9B573260080218A09CA73260080B0
:102FC80023A0C18810415D9A73100680010001009A
:102FD8002380840023806401010001000356C90294
:102FE8001376F60F33667601420641822316C9022C
:102FF80023800400732800801041218A336606016B
:103008007310068023A0018801000100050A137AC5
:10301800FA0F29B2F3270080A18B89CBF327008010
:1030280023A0F1881C41DD9B7390078001000100FB
:10303800B7170040130770052380E704130780FAC9
:103048002380E7040100010003D7C70216063A9659
:10305800420641822396C70299BF914763EEB702A1
:10306800172702001307C7678A05BA959C41BA97C4
:103078008287B717004003A7470B1345F5FF698FF1
:1030880023AAE70A03A7070B698F23A8E70A03A760
:10309800070A798D23A0A70A8280B717004083A664
:1030A800470B1347F5FFF98E23AAD70A83A6070B08
:1030B800558D23A8A70A83A6070A758F23A0E70AB8
:1030C8008280B717004003A7470B498F23AAE70A56
:1030D80003A7070B1345F5FF45BFB717004083A6A5
:1030E800470B1347F5FF758F23AAE70A03A7070ABB
:1030F800598D4DB7B717004003A7470B498FEDB758
:10310800914763EEB702172702001307A75E8A05E7
:10311800BA959C41BA978287B717004003A7470D15
:103128001345F5FF698F23AAE70C03A7070D698FDD
:1031380023A8E70C03A7070C798D23A0A70C82808E
:10314800B717004083A6470D1347F5FFF98E23AA4A
:10315800D70C83A6070D558D23A8A70C83A6070CAB
:10316800758F23A0E70C8280B717004003A7470D8F
:10317800498F23AAE70C03A7070D1345F5FF45BFA1
:10318800B717004083A6470D1347F5FF758F23AA8D
:10319800E70C03A7070C598D4DB7B717004003A7D5
:1031A800470D498FEDB79357E50093F70730C98F5F
:1031B800C2070547C1836382E5048DC10947638D52
:1031C800E5040D476380E50637170040231FF7081D
:1031D80083562709D58F2319F708828037170040AF
:1031E8000356670993C6F7FFF18E231BD70883267A
:1031F800C70C558D2326A70CC1BF371700400356AF
:10320800670993C6F7FFF18E231BD7088326870C1F
:10321800558D2324A70C4DBF3717004083566709E7
:10322800DD8EE1B73717004083566709DD8EE9BFA9
:10323800B717004003D587004205418193770504FD
:1032480091EB9377F5013755E80113050580334570
:10325800F50282809377050C130700046397E70053
:103268009377F50137459C1CCDB72165130505D02B
:10327800828037E700E01C435443A183E206D58FE0
:103288001CC1FD572320F7182322F7188280131733
:103298008500B7E700E023A0E710618123A2A7100B
:1032A8008280B7F700E08847CC478280814737376C
:1032B8000040A14663C4C700328582800345B740F9
:1032C800E38EA6FE3385F500034505008507230434
:1032D800A740CDB797F7FF1F938747539C4317170E
:1032E80000201307A7423E95636EE500175700209C
:1032F8001307C7B06368A70017F7FF1F2328A75055
:103308003E858280FD57EDBFB7270040C8C70947F3
:103318002380E70011472380E7008280411122C4FF
:1033280006C62A8431372947B307E502B2408D83A0
:10333800B3D7870222449507B3D7E702373700404F
:10334800C207C1832316F74041018280716541118C
:103358001305052006C6D937B7370040130770F89C
:103368002381E7400D47A381E74013070004A380AA
:10337800E74005472387E740B24041018280411179
:1033880006C622C426C24AC0EFF0EF88B71700402D
:103398000947238CE70413140501EFF06F95AA85FC
:1033A800AA841725020013052536EF00927C418078
:1033B800B30594001725020013050536139405017B
:1033C800EF00327B938701899C43418091C38297A8
:1033D800938741899C4391C3829783D7618013095E
:1033E8004006637EF40083D48180014963F9840038
:1033F8001387C188184315C3228502972A89CA856D
:103408001725020013058537EF00B276B240224433
:103418004A859244024941018280B30594401309C8
:103428004006B386250313851700058D93140501FF
:10343800C1802686172502001305C52EB3C696023D
:1034480093F6F60FEF00F27203D581803305A4409E
:1034580033052503334595021379F50F4DB703A8B6
:103468004500411126C206C622C4834718000348F6
:103478000800A944A207B3E70701C2070D68C1877E
:10348800130828906396070385473284EF704064D9
:10349800AA8419ED938781889C4399CB034514002E
:1034A800034704002205598D133515000505829739
:1034B800B240224426859244410182802D453DE751
:1034C800D841411122C426C206C6834717000347C4
:1034D8000700B684A207D98F0D67930697A1328497
:1034E8006396D702693D83C741806374F5002382E0
:1034F800A18085472390F40083C741802300F4000E
:103508000145B240224492444101828013078790CA
:103518002945E398E7FECC4589472390F4000946FE
:10352800228597D0FF1FE780206DD9BF828083470F
:103538004500858BADC7011122CC2A84035525008F
:103548009385C19C06CEEF706053058929C5035544
:103558002400014781460546ED45EF70800C2AC6D8
:103568001DC997F7FF1F9387A7D583D7A7020146E1
:103578002C002314F10085472315F10083C74180EF
:103588002300F50003552400EF80202C09C5ED45E4
:103598002800EF70C020F24062440561828082807A
:1035A800416541119385C19C7D1506C6EF90201B8E
:1035B800B24097F6FF1F9386A6D54146954517F565
:1035C800FF1F1305E5CF41016F90800E23A4A1884A
:1035D8008280411122C406C6854709446311F50259
:1035E8008347060001442382F18803C7418063783A
:1035F800F700170500001305C5F3EFB080572285C3
:10360800B24022444101828085476301F50209C91D
:1036180009476302E5020D476306E5020945828012
:1036280083C741802380F5000145828093874188C4
:1036380083C70700C5BF97F7FF1F83D707C9239024
:10364800F500DDB71387C180035707002392E50013
:1036580017F7FF1F1307C7C68356A7020357A70309
:103668002383F5002390D5002391E50075BF411110
:1036780006C6313383C74180637AF5002382A1806F
:10368800170500001305E5EAEFB0A04EB24001456A
:103698004101828041677917630CE502411122C418
:1036A80006C685472A84639AF50022852244B240DB
:1036B8009385C19C41016F90800A89476396F50004
:1036C8008545EFB0804575D1B240224441018280E2
:1036D8008280CC41411106C6328503C6150083C5D8
:1036E800050022064D8E42068D654186138875A217
:1036F800630C060F6348C804138845A26306060BCB
:10370800634AC800938535A26309B606239006006C
:10371800294679A0138855A26308060B938565A2EC
:10372800E316B6FEC1451D4663ECE5064546198E0F
:1037380063F3C7003E862390C60097250200938551
:10374800E50589A8138895A26300060F634E060B4A
:103758001388A5A2630A060F938505A5E318B6FA90
:1037680099451D4663EEE502198E63F3C7003E8650
:103778002390C6009385418131A89D451D4663E18C
:10378800E5022146198E63F3C7003E862390C600E2
:1037980093858189BA9597D0FF1FE780E045014658
:1037A800B240328541018280AD451D46E3EAE5FE1F
:1037B8003146198E63F3C7003E862390C6009725CD
:1037C800020093856501F9B7B1451D46E3EAE5FCBA
:1037D8003546198E63F3C7003E862390C6009725A9
:1037E8000200938565007DB7C1451D46E3EAE5FA09
:1037F8004546198E63F3C7003E862390C600972579
:1038080002009385E5FA79B7C1451D46E3EAE5F874
:103818004546198E63F3C7003E862390C600972558
:103828000200938565FDBDB7C1451D46E3EAE5F68F
:103838004546198E63F3C7003E862390C600972538
:103848000200938525F8B9B7B5451D46E3EAE5F4C6
:103858003946198E63F3C7003E862390C600972524
:1038680002009385A5F23DB797F6FF1F938606BE23
:103878004146CD4517F5FF1F130545AA6F805063D4
:1038880082809387418B9C4303C7818A83C6318298
:1038980001E781473E85828003D607006316A600AC
:1038A80003C66700E308D6FE7D171377F70FA10755
:1038B800C5B7B2862E86AA8517250200130585F896
:1038C8006F00322B0111930500030D4506CEEF3032
:1038D8003050930500051145EF30904F9305C00314
:1038E8000545EF30F04E85471306F1008545130571
:1038F8005030A307F100EF70F158F2400561828063
:103908008547631AF5001166130686A9894503C51C
:10391800918A6F10F01089476317F500894503C530
:10392800918A6F103032828085476398F50019E2DA
:103938002381B18A238CC18A828009476399E50073
:1039480019E62381F18A03D5018A6F00D0078280A6
:103958009387C18A9C43011122CC06CE2E8481CB49
:103968009C4791C78297F2406244056182806C004F
:1039780013057040EF60A130324681452285EF6023
:103988006172D5B701119397050126CA06CE22CCDC
:103998004AC84EC652C4C187AE8463DA070803C555
:1039A800918AEF10E03B2A8431CD03470500930745
:1039B800000D6316F704834725004547638EE70427
:1039C8006547639EE70217250200130525E4EF000B
:1039D800521A130954009309B400172A0200130A53
:1039E8002AE48345090052850509EF009218E39AF5
:1039F80029FF17250200130525FFEF00D22B22858A
:103A0800EF10E02E2165258DF2406244D2444249F0
:103A1800B249224A056182800346650083457500E4
:103A280017250200130545E0EF00B214C9BF93F74C
:103A3800150085C317F6FF1F1306C6A297F5FF1FCB
:103A4800938585A103C5918AEF70111013C51400E1
:103A580065BF93F725000145C5DB113911661306CB
:103A680086A9894503C5918AEF10807B13C5240078
:103A780061BF797126D24ECE06D622D44AD052CC16
:103A88009147AA84AE896314F50483D7A500130669
:103A9800E1008545130550302390F18A2307010082
:103AA8002381018AEF70113E9387C18A9C4391C795
:103AB800DC4781C7CE8526858297B250225423A23F
:103AC800918A02599254F249624A45618280138769
:103AD800418A1843E31AF7FC854503D5018A5D3E00
:103AE800854503D5018AEF00C073C16703DA018AEF
:103AF800F917631BFA0205449305E10013055041C9
:103B08002381018AA381818223070100EF602117A5
:103B18008347E100B1E303C7818B9147E316F7F8C8
:103B28005533238C018A49B79387418B03A9070032
:103B380003C4818A69D00355290011C99305E1009E
:103B4800EF70205909C54C455285EF8050417D14CE
:103B58001374F40F2109F9BF9387018B9C4383C722
:103B68004700898BCDDB9305000A0D45EF305026C1
:103B78009305000A1145EF30B02581450545EF3022
:103B880030251306E10085451305503023078100D1
:103B9800EF70512F49B70111170500001305C5DE55
:103BA80006CE22CCEF10F03D1384918A8547130688
:103BB800F10085452300A40013054041A307F10047
:103BC800EF60E1747D55EF60006E7D55EF80103633
:103BD8006139F932C123170500001305A5D2FD325A
:103BE80017050000130505CAE12B034504008545A8
:103BF800EF10004BF24062440561828023A6B18A2F
:103C080023A8A18A828023AAB18A2384A18A8280D8
:103C18009387418A9C43797106D622D426D24AD00A
:103C28004ECE52CC1147639BE70483C7218A414497
:103C380081CF9387418B8043B284B68983C7818AB9
:103C480003C7318299EB55442285B25022549254CD
:103C58000259F249624A4561828083464400639A68
:103C6800A600834654006396B600834664006380CA
:103C7800E606FD1793F7F70F2104E9B70947414412
:103C8800E384E7FC2C001305504123040100EF50A6
:103C9800117F834781008DCB930500020D45EF30DE
:103CA8003013930500031145EF30901295450545F3
:103CB800EF30101285473000854513055030230436
:103CC800F100EF70311C49B7F53E4144B5BF0355CB
:103CD800240093056100EF70C03F35D54C4503D5EE
:103CE800018AEF60B059058939DD13990401135928
:103CF8000901014781464A86ED4503D5018A035AE1
:103D08000400EF6010122AC64D441DDD2686CE85BC
:103D1800231441012315210197D0FF1FE780C0ED2F
:103D280001462C0003D5018AEF7030322A84E30D56
:103D380005F0ED452800EF60902639B7C84101111C
:103D480022CC06CE32840346150003450500220620
:103D5800498E19CB0D681308B8A42D4563090607C9
:103D6800F2406244056182800D651308D5A46300A2
:103D78000603130825A2630C060175781308E85C8E
:103D88003298420813580801854863EE080303D5A2
:103D9800A50036C632C4F534B24615C19387C18A28
:103DA8009C4322468345550003A30700A28762442B
:103DB800F240034545003687854605610283239016
:103DC8000600014571BF1308B5A46317060303D69F
:103DD800A1821D45E376C7F8198E63D3C7003E86D6
:103DE800CC452390C60042064182BA95228597D0D9
:103DF800FF1FE78060E0F1B79307A5A46318F600FA
:103E080091472390F6001146CC45CDB7930785908E
:103E18006317F60089472390F6000946F5B793071C
:103E2800E5A4631AF600DC452390160183C7070052
:103E38002300F40079B713057590E314A6F8D9BFE9
:103E4800011122CC06CE26CA4AC82317D1002D4418
:103E580029EBDC412E89B28403C4170083C707000D
:103E680022045D8C8D679386D7A46306D40093865D
:103E780027A3631FD4020355A900213419E1014483
:103E88000DA09387C18A9C4383455500034545008F
:103E980003A807002286A6871307E1008146029837
:103EA8002A842285F2406244D244424905618280D4
:103EB8009386C7A46314D4028357E10005473544A9
:103EC800E391E7FE0345060013040008E3EBA7FCB3
:103ED8009387C18A9C43DC43829755B79386279082
:103EE800631AD4028356E1008547EF60703E2A8446
:103EF8004DF99387418B8356A9009C4303C7818A58
:103F08003DDF03D627006302D6047D171377F70F2A
:103F1800A107FDB79387E7A4E313F4F68357E100FD
:103F280005473544E39FE7F60345060013040008F8
:103F3800E3E9A7F6DC452380A7009387C18A9C4361
:103F48003335A0000905DC4341BF1387C18A1843F4
:103F580003C5470083C5570083C71400032807001B
:103F680003C70400A2078946D98FC207C18705473E
:103F78006383E7008D460D66A6871307E1001306E5
:103F88002690029839BF411122C441641305F4FFF9
:103F98009385C19E06C626C24AC0EF80407C1305A1
:103FA800F4FF9385C19D97E4FF1F9384644CEF80D1
:103FB800007B97E6FF1F9386A6654146E94526855F
:103FC800EF80006FCC4C2A890945EFF0EFE31387A7
:103FD800818383460700938741830347170003C6FD
:103FE80017001384C19F83C50700A306E40083D785
:103FF800A40CA30EE40003D7A416A302C400A30ACA
:10400800C40003D6A4132310F400231CE40083D7B0
:10401800A40D1387018303D5A4102318C4000357E4
:10402800070003D6A4142311F40085472303F400E2
:104038002306D4002307F4002319C400230ED40058
:104048002302B4002314A400230AB4002315040097
:10405800230B0400231D0400230F04002312E40291
:1040680003D7A418938541A22303F4022310E40282
:10407800231104020D45EFF02FD9A2851D456136A5
:10408800B24022444A8592440249410182808D67A8
:10409800138527A36301A6049387D7A40145631E4C
:1040A800F6008947639CF500854735456397F60018
:1040B80083470700238FF18A014582808D47294570
:1040C800E39DF5FE85473545E399F6FE83470700EE
:1040D800238EF18AD5B785473545E390F6FE8347A9
:1040E8000700A38DF18AC9BF8D67138527A36308CD
:1040F800A6029387D7A46317F6028947639BF50046
:1041080083C7E18B2300F70085472390F60001451C
:1041180082808D476398F50083C7C18BE5B783C755
:10412800B18BCDB723900600DDB70145828025E32A
:1041380003A84500AE888347180003480800A20773
:10414800B3E707010D68930EF8A4639AD703914764
:104158003548639FF60203A5C8004111B285114690
:1041680006C697D0FF1FE78020A99387C18C9C4380
:1041780005458297B24001484285410182809308F3
:10418800289029486396170185476F6070142D4859
:104198004285828041654111938541A37D1506C6FC
:1041A800EF80E05BB24097E6FF1F9386264D4146BD
:1041B800994517E5FF1F1305654641016F80404F7C
:1041C80023A6A18C82800111938541A322CC06CE1F
:1041D8002A84EF60B00A058929C10147814605464E
:1041E800ED452285EF60E0432AC605C997E7FF1F22
:1041F8009387C74283D7A70501462C002314F100F3
:1042080085472315F100230005002285EF70E06340
:1042180009C5ED452800EF608058F2406244056109
:10422800828041677917630CE502411122C406C6F2
:1042380085472A84639AF50022852244B2409385F3
:1042480041A341016F80A05189476396F5008545D8
:10425800EFA0B00C75D1B240224441018280828027
:1042680011456FE0AFD1411193962500AA852D45E0
:1042780006C697C0FF1FE7808061B2400145410133
:104288008280411126C29394250022C44AC02A8400
:104298003289A686AA850146254506C697C0FF1F0E
:1042A800E780E05EA6864A86A285294597C0FF1F5B
:1042B800E780E05DB2402244924402490145410151
:1042C8008280011122CC06CE3714004026CA4AC883
:1042D8004EC652C483447405034AB4058349840511
:1042E80003499405EFE04F9E8347A40593F4F40F28
:1042F800137AFA0F93E71700230DF40493F9F90FD3
:104308001379F90FB717004003C7A705058B6DFF91
:1043180003D5C705A38D4705238C3705A38C27052F
:10432800A38B9704F2406244D2444249B249224ADC
:104338000561828041119397050122C406C6C18791
:104348002E8463DD0700EF00B02119C1EF00301A99
:104358002165218DB24022444101828093F71500E6
:1043680013C51500E5FB9397250163D00702EF10ED
:10437800A178FD3537F60200130606E0896503C506
:10438800018DEF00F0690965E9B7939715010145BB
:10439800E3D207FC1715020013058555EF00A2119B
:1043A80013060064916503C5018DEF007067116500
:1043B8004DB71D714946971502009385E54E17259F
:1043C80002001305E59886CE97D0FF1FE780C08BC3
:1043D80001E9171502001305654EEF00C20D01A093
:1043E800B7F600E0795798CAFD57DCCA0567B7E702
:1043F80000E023A0E7101306F00290C223A0E718FC
:10440800010001001306C0038145480897D0FF1F2B
:10441800E780008297E7FF1F938787633ECA896713
:1044280093870780231CF100B5472304F102A16795
:10443800938707E03ECEB7070105938707103ED064
:10444800ED472312F10285472303F1029707000085
:104458009387A7E1BEC4970700009387C7E2BEC64B
:104468008567938717D02315F10297F7FFFF938786
:1044780087E33EDAB7F50700970700009387A7E4BC
:104488003EDE8146970700009387C7DD7000E1058F
:104498001945BEC097C0FF1FE780603F5808814795
:1044A800994670003E960346060085070507A30C4B
:1044B800C700E398D7FED24791C7035781018567A4
:1044C8006373F70001A04808EF10602FAA8501C99F
:1044D800171502001305C53FEFF0B16901A0F640BA
:1044E800256182804111170500001305E5E406C621
:1044F80022C4EF1000291384018D2300A400192879
:10450800034504002244B240130600328965410184
:104518006F001051411106C6F3270080A18B138745
:10452800018889CBF327008023A0F1881C43DD9BF9
:104538007390078001000100B717004093067005CB
:104548002380D704930680FA2380D7040100010052
:1045580083C6F70293F6A60FA387D7022380070422
:10456800F32600801C43A18BD58F7390078023A06E
:10457800018801000100F3270080A18B89CBF32774
:10458800008023A0F1881C43DD9B73900780010005
:104598000100B7170040930670052380D7049306DF
:1045A80080FA2380D7040100010083C6F70293E64E
:1045B8002600A387D70223800704F32600801C4324
:1045C800A18BD58F7390078023A00188010001007B
:1045D8000545EFD0FFF369311305407E8147014758
:1045E800814605468545EFD03FF9B2400145410176
:1045F8006F10805182803D897D15954763EAA70E2B
:10460800171702001307072F0A053A951C410111D5
:1046180006CEBA9782872C0013054030EF60D1721E
:104628002C000545EF502010171502001305053C16
:10463800EFF0716811A803C725008D471715020010
:104648001305C53BE306F7FEF2400561828003C708
:1046580025009547E31AF7FE83D7A5000D661306D4
:104668000620914503C5E1842396F184EF00503B71
:10467800171502001305853965BF03C725008D4747
:10468800E314F7FC171502001305453955B783C71E
:1046980025001147171502001305053A638EE70236
:1046A80019476394E70283C56500171502001305CF
:1046B800653AEFF0114C85473000854513055030B9
:1046C8002304F100EF60117C41B71547E395E7FE3D
:1046D800171502001305C539EFF0F15DE9BF83C571
:1046E8002500171502001305253AEFF09148A9BFD8
:1046F800828001112305A10034002146854501452A
:1047080006CE23140100A305010002C6EFF04FD026
:10471800F24005618280411106C622C43A883E876C
:1047280095EA32830D661306D6A42A8EAE88834690
:1047380008006319C30089476396F5008547354427
:10474800639EF6022244B2401A86C68572854101EC
:104758006FF0FF9385476398F6002244B240C28603
:1047680041016FF07F98894701446399F600130669
:10477800401F894503C5E184EF00902A2285B24095
:1047880022444101828083D7C1838507C207C18340
:1047980051476367F700239EF18203C5818E8280AB
:1047A800011106CE22CC26CA4AC84EC6239E0182D3
:1047B800B7190040EFD03FC6094913140501238CEF
:1047C8002905EFD0FFD24180B305A40093940501D9
:1047D8000564C1801306C49933B6C40017150200D6
:1047E80013050517EFF0F138239D918C83A7490C29
:1047F8001397170163460704130474938D47637E68
:104808009404A387218583D5A18D1715020013056C
:104818002517EFF01136854703C4F184630CF406BD
:104828002DC48944630194048D476307F404F2405E
:10483800624403C5818ED2444249B24905618280EF
:10484800171502001305C512EFF0F14683D7A18DA5
:10485800130474A26366F4008547A387F18465B7DF
:10486800A38701844DB7171502001305E512EFF071
:1048780091442384018E65BF171502001305C512E4
:10488800EFF071432384918E5DB71715020013056D
:104898002513F1BF171502001305C513EFF0B14139
:1048A8002384818E69B741119397050122C406C6F6
:1048B800C1872E8463DD070003C5E184552111C13A
:1048C8003D212165218DB24022444101828093F728
:1048D800150013C51500E5FB93F7450099CF83C76D
:1048E800E1841307401F81462146A14503D5C184B1
:1048F800EF60F11E13454400F9B793F785009DC397
:10490800014789460946814503D5C184EF7061098D
:10491800AA8517150200130565FFEFF091251345C9
:10492800840055B793F72500A1C393870184984362
:104938000DE79307F004238FF18C03C5E18D553BF8
:1049480083C5E18D171502001305C5FDEFF071222F
:104958000145453313452400BDB798438547E31EF9
:10496800F7FC93070005C1BF93F705010145A1DFD7
:10497800193D85476303F50293178501E1879DC7B4
:104988008947630EF5021306401FC14503C5E1843C
:10499800EF001009134504013DB73717004083277E
:1049A800C70C93E707082326F70CF1BF3717004019
:1049B8008327870C93E707082324F70CE9B73717F1
:1049C80000408327870C93C70708FDB70111170517
:1049D8000000130585ED06CE22CC26CA1384E18497
:1049E800EF00305A85442300A40070008545130564
:1049F800503023069100EF60F14817E6FF1F1306B9
:104A0800A6C8E54513056030EF60D14717E6FF1FDC
:104A1800130646CABD4513057030EF60B146171638
:104A28000200130666F1D5450145EF5060768D47C3
:104A380070009145130570402305F100230491008F
:104A4800A305910002C6A3040100EF50510C3000E9
:104A5800854513050040EF50910B130691008545DD
:104A680013051040EF50B10A1306A1008545130540
:104A78002040EF50D1091306B10085451305504079
:104A8800EF50F10899477000854505452306F10068
:104A9800EFE03FB4EFF02FCF97E5FF1F938585C078
:104AA80013854184EFF08F95034504008545CD2B90
:104AB80003450400C145ED23F2406244D244056138
:104AC800828039711305800406DE22DC26DA371469
:104AD80000404AD84ED652D497B0FF1FE780A05C5A
:104AE8000327C40C85648D45458F2326E40C056592
:104AF800EFE00FE18327C40C81450565C58F2326A8
:104B0800F40CEFE08FD581450145EFD0BF9985457D
:104B18002165EFE0EFDE89452165EFE0CFE8E17739
:104B2800231FF408B7E400E0370904008545414530
:104B380023A02411EFE0CFDC89454145EFE0AFE643
:104B4800C147231FF4088945116523A02411EFE00C
:104B58002FDB8327840C8D451305000893E707088E
:104B68002324F40CEFE0CFD98327840A21678D45ED
:104B7800D98F2324F40A2165EFE02FCE8327840AF6
:104B88008D451305001093E707102324F40AEFE07E
:104B9800CFCC8327840A09678D45D98F2324F40A4B
:104BA8000965EFE08FCB8327840A11678D45D98F7C
:104BB8002324F40A1165EFE04FCA51469715020005
:104BC8009385C5AF6800EFF0616F8D49154A814440
:104BD800F9E432498327C40C13054006B3E72701DB
:104BE8002326F40C97C0FF1FE78020988327840CA6
:104BF8003369F9002324240D8504E39B44FDFD1942
:104C0800E39709FC1305401F97C0FF1FE780E09555
:104C1800371400408327840A21673795040093E7F7
:104C280007102324F40A8327C40A1305053ED98FE5
:104C38002326F40AEFE04FED37270040834727008B
:104C48008D451305002093E717002301F7004167FE
:104C5800B7E700E023A0E7108327840A93E707203B
:104C68002324F40AEFE06FBFEFE04FEE17150200C0
:104C78001305050EEFF03104171502001305C5E7FB
:104C8800EFF0216FEFF0EFF2EFF0DF85EF60B15159
:104C9800EFE07FF0253B97C0FF1FE78000B374006B
:104CA800139724003697032907008327C40A13059E
:104CB8004006B3E727012326F40A97C0FF1FE780C1
:104CC800C08A8327840A3369F9002324240B2DB76B
:104CD80023AC05FE1C4191E7010001000CC1828054
:104CE800BA8703A787FF6DFF23ACB7FE82801DC17B
:104CF8008346E5FF1307F00F9147639EE6004111D5
:104D080006C697D0FF1FE78040DAB24081473E854C
:104D18004101828095473E85828001E90145828074
:104D28000145B24022444101828095654111938535
:104D380005D022C4C98D2A842105C2054205C18136
:104D4800418106C697D0FF1FE78000C971D9FD577A
:104D580023200500231285002303F5002105D1B780
:104D680017F7FF1F130787531C43411122C426C29C
:104D78004AC006C601440149BA8489E7A165D92514
:104D88001DC401A803C7E7FF631AA7020DCCA165DC
:104D9800012E9840832784FF6319E40217F7FF1F49
:104DA800232EF74EFD57232C04FE230FF4FE2285F5
:104DB800B2402244924402494101828011E03E8976
:104DC80083A787FF5DBF3E84E5BF232CF9FED9BFCB
:104DD800B1CD411122C406C62A8497F7FF1F83C7A5
:104DE800374C2E856375F400894763E887000137DF
:104DF8000D45B24022444101828083A785FF99E78F
:104E080003C7E5FF9307F00F6305F700CD35154598
:104E1800CDB7238F85FE17F5FF1F130525484D3D98
:104E280022852244B240A16541019DAC154582808E
:104E380097F7FF1F23A40746828097F7FF1F9387E2
:104E4800674B9C4399E33E85828003D7270063160E
:104E5800B70003C70700E308A7FEDC47E5B7C9C1E9
:104E6800797122D406D626D24AD04ECE0144414783
:104E7800B3D78540858BA5C31205314722953305E5
:104E8800E50297F7FF1F9387E74A03A907008544C0
:104E9800B3948400C204C180BE892A9903270900FB
:104EA80011C7032549002EC60297B245314733047E
:104EB800E40283A709003E941C4489E723200900E3
:104EC80023220900B2502254A58D02599254F24966
:104ED8002E85456182800504E31CE4F88144DDB732
:104EE8002E85828041111397050122C406C626C269
:104EF8004AC041872E84635E07009D3511C1C53BBA
:104F0800A1673D8C2285B240224492440249410166
:104F18008280EDD9AA8701474146B356E440858A85
:104F28008DCE9207BA97B146B387D70297F6FF1F7F
:104F38009386464003A906008544B394E400C2045E
:104F4800C1803E99832709000325490082972320C1
:104F5800090023220900258C75B70507E31FC7FA46
:104F68008144D5BF97F7FF1F938707399C53411199
:104F780022C406C61384018599C782971C403E95B2
:104F880023A8A18439A097F7FF1F938727369C434E
:104F9800EDF70840B74703009387D73F3305F5027D
:104FA800B7A72600938737ECB24022443E9523A842
:104FB800A184410182807DC197F7FF1F9387073342
:104FC8009C43797122D426D24AD04ECE52CC56CAAE
:104FD8005AC806D65EC63A8AB689328BAE8A2A89FC
:104FE800829797F7FF1F9387E7349843BE8401445D
:104FF800B146C147B30BD40233067701104251EAD8
:10500800C165938505F0414597D0FF1FE780C09C97
:105018001DE597F7FF1F9387272E9C5B2D4589C7B2
:105028001145814582972D45B25022549254025918
:10503800F249624AD24A424BB24B4561828097F7A5
:10504800FF1F9387272B984329E397F7FF1F23A375
:10505800A72A230005009C4005473317870023260D
:105068000500232465012311E50023224501DE976D
:1050780023A0270123A2570123A447010145E38563
:1050880009FA238089004DB73E875C47F5FF48C77A
:10509800C9B70504E310F4F6214579B709458280BC
:1050A80097F7FF1F83C7D71F6371F50217F7FF1F15
:1050B800130707249317150008433E9583570500E7
:1050C800DD8D2310B500014582800D45828097F75C
:1050D800FF1F83C7F71C6373F50217F7FF1F13073A
:1050E800272193171500084393C5F5FF3E9583576D
:1050F8000500FD8D2310B500014582800D45828095
:10510800130705FF1377F70FFD4763E9E70AB14671
:10511800B306D50297F7FF1F9387C721984389479E
:105128003697184349CF011122CC4EC605449359EE
:1051380045003D893315A40013140501418026CA92
:105148004E85AE84A2854AC806CEC5392A898147CC
:1051580031CDA2854E85A53F97F7FF1F9387071985
:105168009C43829797F7FF1F83D7C71D3387970202
:105178002A84814613060064B3B7970213050732E1
:10518800B335E500BE95EFE0F159B307850097F612
:10519800FF1F9386A61A3E87D44263E4A70063E400
:1051A800D7003387D7402324E9008147F24062447F
:1051B800D2444249B2493E850561828089473E858D
:1051C8008280011126CA06CE22CC4AC84EC6BD47E7
:1051D800894463EFA70231473307E50297F7FF1FBA
:1051E800938747159C438944BA979C4395C30544C4
:1051F8003314A400420441802E890145A285353923
:10520800AA89814411C5A2850145D13523A4290164
:10521800F240624426854249D244B24905618280FF
:1052280097F7FF1F83C7D7076364F500014582809E
:10523800011197F7FF1F9387670B56C283AA0700D0
:1052480006CE22CC26CA4AC84EC652C4638E0A0A63
:1052580017FAFF1F130A8A0E83244A00B74736FE3F
:10526800938707C8AE8997F5FF1F83D5A50DBE9410
:10527800B387C5022A8432898146B3B5C50213852E
:105288000732B337F50013060064BE95EFE0914985
:1052980063ECA406829A97F5FF1F83D5A50AB38706
:1052A8002503AA84130600648146B3B52503138534
:1052B8000732B337F500BE95EFE0D146B307950046
:1052C800BE8403274A0063E4A70063E4E700B384CD
:1052D800E740CE852285EFF05FB601C504C50545D8
:1052E8002DA0936504F0C205C181414597C0FF1FF9
:1052F800E780806E05E597F7FF1F9387E7FF9C5BC4
:1053080081C7A285114582970145F2406244D24483
:105318004249B249224A924A0561828097F7FF1FA3
:10532800938747FD9C439DE397F7FF1F23A4A7FCA2
:1053380085472326050004C5231135012300850070
:10534800A300F5002322050059BFBA87D84775FF87
:10535800C8C7F9BF59C9797122D426D24AD04ECECE
:1053680052CC56CA5EC662C466C206D65AC83689C8
:10537800328AAE89AA844144314C97FAFF1F938A36
:105388006AFB854C930B0003330B840303A70A00C5
:105398005A971C43B1E79375F400B395BC001355B5
:1053A8004440C2055286C1811375F50F953D0DC95C
:1053B80083A70A000145DA9784C323A2370163044F
:1053C800090023008900B250225492540259F2492C
:1053D800624AD24A424BB24B224C924C456182807F
:1053E8000504E31374FB2145F9BF09458280411187
:1053F80022C426C24AC006C62A842E89B2840D3524
:10540800CA852285EFF07FA305CD97F5FF1F83D5C9
:1054180065F3B38795022A84130600648146B3B501
:10542800950213850732B337F500BE95EFE0912F4B
:1054380048C00145B2402244924402494101828059
:105448002145CDBF411122C426C24AC006C62A89B9
:105458002E84EFF09F9EAA8419C123110500A2850E
:105468004A85B53197F7FF1F83C787E3639B2701F9
:1054780097F7FF1F83D747E75D8C97F7FF1F2395A3
:1054880087E6014591E01945B24022449244024919
:10549800410182809307F00263E8A7044111B147F4
:1054A80022C43304F50226C297F4FF1F938484E8CC
:1054B8009C4006C6A297984389470DC39377F50089
:1054C8008545B395F500C205C1811181A53F9C4072
:1054D800A29723A0070023A207008147B2402244D5
:1054E80092443E854101828089473E8582804111F0
:1054F80006C622C4EFF07F9411E50145B24022446C
:105508004101828097F7FF1F938747DE9C43004540
:10551800829797F7FF1F938767E26368A402D843CF
:10552800B74636FE938606C83305A4403697E37619
:10553800E5FC13070064B335E50203D6870081460E
:105548003305E502EFE0111E55BFD8433A94C1BFB9
:10555800411122C426C217F4FF1F130424DE97F456
:10556800FF1F9384E4D39448584097F7FF1F93870D
:10557800E7D706C69C436393E60882975440B7472B
:1055880036FE938707C8B6973387A7003A856364C2
:10559800F7006364D7003305D74097F4FF1F93845F
:1055A800E4F29C4C81CF97F7FF1F938727F9944328
:1055B8003707CDFF7D179C46F98F9CC611E14840FF
:1055C80097F7FF1F938747D3DC53829719E59C4CC5
:1055D8008DC3EF00E168EFF0D04B9C4C99CB97F767
:1055E800FF1F9387A7F59843B70633001C47D58F4D
:1055F8001CC7B24022449244410182808297984855
:1056080097F7FF1F83C797D054401D8FB307A70094
:105618003E8563E4E700E3E2D7F83385D740B5BFBA
:10562800411106C697F7FF1F23A8A7D00295B240DD
:1056380097F7FF1F23A2A7C8014541018280994718
:1056480063E9B7008A0597F7FF1F938727C8BE95B8
:1056580088C1828041117146814517F5FF1F1305E6
:10566800E5C606C697F7FF1F23A607C897F7FF1FCB
:1056780023A407CC97F7FF1F23AA07C697B0FF1FDD
:10568800E780005B13068002814517F5FF1F1305AD
:1056980025C197B0FF1FE780A059EF60813A97F7BF
:1056A800FF1F83C7D7C613D527008D8B3E958D471F
:1056B8003305F502854539051375F50F97F7FF1F73
:1056C8002381A7BE99473305F5021305052497C022
:1056D800FF1FE780603017F7FF1F232DA7C459CDA0
:1056E800994717F6FF1F0346C6BB3306F6028145E6
:1056F8001306062497B0FF1FE780805397F7FF1F14
:10570800938747C39C439387072417F7FF1F232DCD
:10571800F7BA17F7FF1F0347C7B80A07BA9717F76B
:10572800FF1F2327F7BCEFF0AFF0052B97F7FF1FFC
:10573800938787B9944397F7FF1F83C777B6139763
:105748002700369717F6FFFF1306A67110C31387B5
:1057580017001377F70F0A07369717F6FFFF130698
:10576800A67810C313873700890793F7F70F8A07BE
:1057780097F5FF1FA386E5B2B69790C3B2404101E3
:10578800828097F7FF1F83C7B7B117F7FF1F03473B
:1057980047B163F3E70217F7FF1F1307E7B2184390
:1057A8009386170017F6FF1FA30CD6AE9396270013
:1057B800369708C33E8582809307F00FE5BF1C41EA
:1057C800638A071641777D8FB706002089476314DF
:1057D800D7160357450063000716411122C419461E
:1057E8002A849305F00F690506C697B0FF1FE78066
:1057F800404E05478D47630AE5121C4481CB585833
:10580800994763040712185C630107121306C00363
:10581800814517F5FF1F130525AE97B0FF1FE780D9
:1058280020411306C003A28517F5FF1F1305C5AC59
:1058380097B0FF1FE780403C17F7FF1F035787AC5F
:1058480097F7FF1F938747AB19E71307001097F6E1
:10585800FF1F2399E6AA17F7FF1F0347C7AA11E7F7
:10586800054797F6FF1F2380E6AA17F7FF1F035780
:10587800A7A911E76D4797F6FF1F2397E6A817F723
:10588800FF1F034757A811E7154797F6FF1FA38C7B
:10589800E6A617F7FF1F034747A711E7054797F63F
:1058A800FF1F2384E6A617F7FF1F034717A619E76C
:1058B80003C7F70097F6FF1FA389E6A417F7FF1F92
:1058C8000347C7A411E7354797F6FF1F2380E6A4CF
:1058D80017F7FF1F0347D7A319E71307800297F6A7
:1058E800FF1FA387E6A217F7FF1F034737A219E791
:1058F8001307D00297F6FF1FA38AE6A00347840187
:1059080019E71307C00397F6FF1F2383E6A09C57E8
:1059180091C7829797F7FF1F2398A798FD5717F706
:10592800FF1FA30FF7C63D338147B24022443E858F
:105938004101828089473E85828001114EC697F9D0
:10594800FF1F9389A99F83A7090006CE22CC26CAE8
:105958004AC852C4829713090064B335250303DA91
:1059680089008146528633052503EFE0A15B97F74E
:10597800FF1F9387E792804FAA840145630694022C
:1059880033858440636E940003A54900528681469E
:10599800B335A9023305A902EFE0C158018D269558
:1059A80097F7FF1F23AA9790F2406244D2444249D6
:1059B800B249224A05618280011122CC0A852E84CF
:1059C8004146970502009385A5D006CEEFE0110F5A
:1059D800180806043A94035504FF97F7FF1F83D766
:1059E8008796F2406244AA9737450F0013050524AD
:1059F8003355F5020561828097F7FF1F83D7A79477
:105A080051471D45637CF702794719456378F702CA
:105A18001307200315456373F7021307B0041145F4
:105A2800637EF700130740060D456379F7001307F7
:105A3800600909456374F70013B5B70F8280011137
:105A480022CC06CE2A842EC6EFF0CFD1B245F24042
:105A5800818D33A5A502229562441375F50F056162
:105A68008280011122CC06CE2A842EC6EFF08FCF79
:105A7800B245F240818D33A5A502229562444205C4
:105A8800418105618280011122CC06CE2A842EC66E
:105A9800EFF04FCDB245F240818D33B5A502229586
:105AA80062440561828097F7FF1F9387E7849857C0
:105AB80039CB411122C426C206C6BE84029717E715
:105AC800FF1F0357677E2A8415CBBA876373A70025
