:040000006F2040200D
:10000400000000000000000090000020A204002076
:10001400A9BDF9F3900000200000000000000000DA
:10002400900000209000002000000000000000006C
:10003400900000200000000090000020000000005C
:10004400AC050020900000204E0600209000002007
:1000540090000020900000209000002090000020DC
:1000640090000020900000209000002090000020CC
:1000740096050020900000209000002090000020B1
:1000840090000020900000209000002090000020AC
:1000940001A04111B7170040985F3AC6945F3247F8
:1000A400E39CE6FE32454101828073270080218B68
:1000B4009387818709CB7327008023ACE18698431B
:1000C4005D9B731007800100010037170040930601
:1000D40070052300D704930680FA2300D704010097
:1000E40001008346B70493F6F60DA305D704230055
:1000F4000704732600809443A18AD18E73900680EE
:1001040023AC01860100010093760502638406187E
:100114000347A700118B25E773270080218B09CBA8
:100124007327008023ACE18698435D9B731007809E
:100134000100010037170040930670052300D7041F
:10014400930680FA2300D704010001008346A70028
:1001540093E646002305D70023000704F326008016
:100164009843218B558F7310078023AC01860100BF
:1001740001001307004B010001007D176DFF732779
:100184000080218B09CB7327008023ACE186984340
:100194005D9B731007800100010037170040930630
:1001A40070052300D704930680FA2300D7040100C6
:1001B40001007D892314A700010001000100010052
:1001C40023000704F32600809843218B558F731076
:1001D400078023AC01860100010073270080218B76
:1001E40009CB7327008023ACE18698435D9B731091
:1001F40007800100010037170040930670052300B3
:10020400D704930680FA2300D704010001000100FB
:100214000100B726004013061005A383C6802300FF
:100224000704F32600809843218B558F73100780B1
:1002340023AC01860100010073270080218B09CBC8
:100244007327008023ACE18698435D9B731007807D
:100254000100010037170040930670052300D704FE
:10026400930680FA2300D704010001008346B704F3
:1002740093E60608A305D704230007047327008028
:100284009C43A18BD98F7390078023AC0186010016
:100294000100828093760504638B06140347A7004C
:1002A400418B25E773270080218B09CB73270080BE
:1002B40023ACE18698435D9B731007800100010025
:1002C40037170040930670052300D704930680FA7D
:1002D4002300D704010001008346A70093E606012A
:1002E4002305D70023000704F32600809843218BBD
:1002F400558F7310078023AC01860100010013079A
:10030400007D010001007D176DFF73270080218BA4
:1003140009CB7327008023ACE18698435D9B73105F
:100324000780010001003717004093067005230081
:10033400D704930680FA2300D704010001009376C2
:10034400F50193E606042314D7000100010001001F
:10035400010023000704F32600809843218B558F66
:100364007310078023AC01860100010013076004A9
:100374006310E50473270080218B09CB7327008069
:1003840023ACE18698435D9B731007800100010054
:1003940037170040930670052300D704930680FAAC
:1003A4002300D70401000100B72600400946B5B573
:1003B40073270080218B09CB7327008023ACE1864F
:1003C40098435D9B731007800100010037170040BC
:1003D400930670052300D704930680FA2300D704FC
:1003E40001000100B7260040130620053DB5732720
:1003F4000080218B09CB7327008023ACE1869843CE
:100404005D9B7310078001000100371700409306BD
:1004140070052300D704930680FA2300D704010053
:1004240001008356870093E6060C2314D700C5BB4E
:100434004111814601468145114506C6412EF327E7
:100444000080A18B9386818789CBF327008023AC1E
:10045400F1869C42DD9B7390078001000100B71771
:100464000040130770052380E704130780FA2380F4
:10047400E7040100010003C767041367170023831F
:10048400E70423800704732700809C42A18BD98F43
:100494007390078023AC018601000100B240410142
:1004A400828081460146814511450D26F32700804F
:1004B400A18B1387818789CBF327008023ACF18636
:1004C4001C43DD9B7390078001000100B7170040B7
:1004D400930670052380D704930680FA2380D704FB
:1004E40001000100FD562396D70223800704F3265A
:1004F40000801C43A18BD58F7390078023AC0186A9
:1005040001000100F3270080A18B89CBF327008031
:1005140023ACF1861C43DD9B73900780010001002E
:10052400B7170040930670052380D704930680FA1A
:100534002380D7040100010083C6670493E61600F4
:100544002383D70423800704F32600801C43A18B54
:10055400D58F7390078023AC01860100010001A0B0
:10056400BD473305F50201007D1575FD82804111FB
:1005740022C426C206C6AA84014463179400B2406A
:10058400224492444101828005041305803E4204C2
:10059400C13F4180DDB7B71700401307000323882C
:1005A400E702854723A6F18C7300203037270040EB
:1005B40083476700858BC9C385472303F700B717B3
:1005C400004003A7470C9387818D9316070163C7E7
:1005D40006069843050723ACE18C94432547635DE5
:1005E400D7048C439387C18D9043175502E01305BC
:1005F400E5F1974002E0E780609C23AE018C8547DB
:10060400A38AF18C371700408327870C514689450C
:1006140093C707082324F70C03C56184975000E0AF
:10062400E780E08437270040238A018C8347070052
:1006340093F7B70F2300F7007300203023AC018C2D
:100644001387C18D1843050723AEE18C79B737179B
:1006540000408357E709C207C18763D70702E177E0
:10066400231FF70883C7418D85E38546238AD18CF0
:1006740023AC018CB727004003C70700136747006A
:100684002380E7002383D700371700408357E70907
:10069400C18BB9C7C147231FF70813050019C13D12
:1006A4009387018D98431DEF054723A8E18C984358
:1006B4000DEF371700408326870A2166D18E232445
:1006C400D70A8326C70A93E606102326D70A8C4343
:1006D400175502E01305C5E5974002E0E780008E58
:1006E4007300203023A8018CD9B737170040832624
:1006F400C70A2166D18E2326D70A8326870A93E662
:1007040006102324D70AE1B7411106C6AD25FDBF63
:100714002303048015472303E48001002302A480FB
:10072400828083076480E3CE07FE230304808280F3
:1007340083076480E3CE07FE0345448082808307F9
:100744006480E3CE07FE2302A4808280411126C484
:100754004AC24EC006C61377F50BAD47AA892E8947
:1007640095446306F70019456537653F8D444E850A
:100774004537FD59FD1463983401B240A24412492F
:10078400824941018280135509011375F50F453FD4
:100794002209CDB7011126CC06CEB7040800513783
:1007A4001545BD37713769372AC6A53F324593775A
:1007B400150089EB136515001375F50FF240E2443B
:1007C40005618280FD14E9FC0145CDBF397126DC49
:1007D4004ADA4ED852D656D45AD25ED006DE62CE0B
:1007E40066CCB7E700E07D5783AA070022C603AAB8
:1007F400470023A0E71823A2E718B7170040130700
:1008040070052380E704130780FA2380E70483C775
:100814004704930B75FFB684E20793FBFB0F8546F1
:10082400AA892E8B328937240040E187015763FA65
:1008340076016308D5008946130700026313D500C7
:100844000157D98F93F7F70FB71C00402382FC049C
:1008540011472303E4801305F00F5D3D094CD135A6
:10086400636D7C11B7050700DA9537870700795562
:1008740063F2E504B3879500636EF702370B080053
:10088400A94733EB65016399F90689E48144513D35
:1008940026850DA0DA850945553D05090345F9FF6F
:1008A400FD14050B693D81C49377FB0FFDF7DD351E
:1008B40069FD7D55B7170040130770052380E704D1
:1008C400130780FA2380E70403C74704418B23827C
:1008D400E704F250B7E700E023A0571123A2471121
:1008E400E25432445259C259325AA25A125B825BC0
:1008F400724CE24C21618280A5476395F9068569B3
:100904001309F00FB3069900B3742B01B69413497D
:10091400F9FFB3749900856B33796901416B93874F
:10092400F9FFB3F7270199E363FC340193D9490034
:10093400C147E3E637FF99BF0569C1697D19D9B796
:100944001305800D6388690113050002638479012E
:1009540013051008CA85DD3B353D21DD4E99B3846E
:100964003441D9B7DA852D45D533CA94E30099F2D9
:1009740005097D3BA30FA9FED5BF9387F9FF93F724
:10098400F70F6361FC0C83C71C0413073008631F53
:10099400F70437070800636BEB04B3079B00B70643
:1009A400100063F5D704334BEB0089476393F906D2
:1009B4008980D549E38C04ECDA850945413B11096A
:1009C4000327C9FF91472320E48003076480E34E93
:1009D40007FE23033481FD17EDFBFD14110B81C4C5
:1009E4009377FB0FE9FF7D3371F5E1B5B71700404D
:1009F40003C75704B70708001377070219E3B7873B
:100A040007007955E378FBEA33079B00E3FFE7F837
:100A140055B58547E382F9F2DA852D45053B93897F
:100A2400F4FFE38504E6293393F7390091EB832639
:100A340004800327090093074900E39AE6E43E890A
:100A4400CE84F1BFB5476396F9001305900BC93105
:100A540035BDB1471305B00AE38BF9FE994763919D
:100A6400F904B7050800B365BB002D45C5318144C1
:100A74008D4BA14975396396740183270480232023
:100A8400F9008504E39834FF8327048013172B01AE
:100A9400635507002312F900D5BB2322F900FDB3E7
:100AA4009D476399F90281451305B0044531BD445E
:100AB4002320090023220900FD599D3993F774006E
:100AC400CA9703C70700FD14398D2380A700E39656
:100AD40034FF6DBBA1476392F9046D398144630D02
:100AE4000B008D479304C0036308FB0093040005C7
:100AF40063048B01930440041375C507E30895D878
:100B04001945393139390545213126850D390945CC
:100B14003D314931E31C05D669BB91476399F9001E
:100B240013056006F536F53E130590090DB7E38FFE
:100B340009D4F154A9BB19CD91CD09CE814733878E
:100B4400F500834607003307F50085072300D70027
:100B5400E317F6FE828019C991C909CA910583A7D2
:100B6400C5FF11057D16232EF5FEC5BF828001C980
:100B740019C62A960505A30FB5FEE31DA6FE8280BD
:100B840081473307F5000307070019E33E85828098
:100B94008507C5BF01112E8626CAAA84131506012E
:100BA4009305F004418122CC06CE32C6EF00B05644
:100BB4002A8401C53246A685BD3F2285F24062449F
:100BC400D24405618280854715C18DC105C2814724
:100BD400B306F5003387F50083C606000347070014
:100BE4006398E6008507E315F6FE85473E85828017
:100BF4008147EDBF9307F6FFBE952A966313C500A0
:100C04008280FD1583C715000505A30FF5FEFDB70A
:100C1400AA87014581CF09CE3E96850703C7F7FF12
:100C24006317B700E39BC7FE0545828082800145B8
:100C340082807971973700009387875E22D480433E
:100C440006D626D24AD04ECE52CC56CA5AC85EC612
:100C540079C0B7C4C901014B973900009389C95BB6
:100C64009384F437173A0000130ACA5B973A0000DA
:100C7400938ACA55173900001309095F8357240062
:100C840095E35C44631D0B0017370000232AF758D3
:100C9400832BC4002285EF0030555E84B9A8232637
:100CA400FB00FDB783A7090082971C443307F54076
:100CB4006376F500032749001D8F2A9763E2E40851
:100CC4009737000023AC07508355240003450400E4
:100CD400974000E0E780A0015C405844A1CB0C445D
:100CE40003264900AE97BE8663E4B70063E4C700F9
:100CF400B386C74014C4228B3A8449F09737000066
:100D04009387C74C9C4B09476372F706F91717374B
:100D140000002325F74CB250225492540259F24950
:100D2400624AD24A424BB24B4561828063170B0040
:100D34009737000023A6E74EA1BF2326EB0089BF07
:100D440003274A0209CF63EFA7003385A74083A78F
:100D54000A016376F5009737000023A1A748228B88
:100D6400404461BF03274900BA97C5B797370000CD
:100D740023A607464DB7411122C4173400001304BB
:100D8400A4471C4006C626C24AC091C7829797371B
:100D9400000023A307469737000083C73766858B77
:100DA400973400009384446595C397370000A38764
:100DB400076483C774001547637AF700A12B83C7C0
:100DC4007400F5178A07A2979C4382971C4491C329
:100DD400829717390000130969440327090017365D
:100DE40000000346B63E9737000083C7273E93961C
:100DF4001700BA9683D60600D5CE9737000083C76E
:100E0400E73C63E3C70C973700002381073C1C4091
:100E1400639D07129737000083C7975E91CF83C7FE
:100E2400740093F7F70F89EB97370000A38A075CE8
:100E3400974001E0E780604F973700009387C73DF4
:100E44009C4363840710973700009387E741DC4392
:100E5400173700002324F738E93B973700009387BE
:100E6400673CDC53FDC31737000013072736184BC4
:100E74009737000083C7573C6369F70C83C7740036
:100E840015476364F70C9737000083C7A75B918B02
:100E9400CDEF032609009736000083C6363363CCB2
:100EA400D70A2244B240924402494101174300E068
:100EB4006700C32E850793F7F70F97360000238743
:100EC400F630E3E2C7F215BF86073E978355070065
:100ED4002310070097370000239E0732973700003E
:100EE400938747319C43173500000345252E13177C
:100EF4002500BA979C4382979737000083D78731A0
:100F0400173700000347872C93C7F7FF7D8D93178E
:100F14001700032709003E97835707005D8D2310B0
:100F2400A7009737000083C7672A91C7850717373B
:100F34000000230DF72817370000034727299737A8
:100F4400000083C7B728E370F7ECB2402244924410
:100F54000249410182801397170032970357070013
:100F64006DF785072DBFAD6737C70040BD07232642
:100F7400F7200F1000009737000093872725C84FEC
:100F840083278726BD66BD0693C7F7FF99836A0545
:100F94002326D7205D8D82804111B7170040985FCA
:100FA4003AC6945F3247E39CE6FE324541018280B3
:100FB4001305F00F828001119737000093870754BF
:100FC40022CC03A4070C26CA06CE2AC42EC6854406
:100FD40019E40145F2406244D244056182808347AA
:100FE400910003471400858B6304F7000044CDB7D8
:100FF40019469305A10013052400F136E31895FE64
:101004000545C9BF173700001307073E1C43930665
:10101400001094C301000100010001001C4323A03F
:1010240007008346150003482500A2064208C2961D
:1010340003480500C296034835006208C29694D757
:101044008346550003486500A2064208C296034839
:101054004500C296034875006208C296D4D78346F9
:1010640095000348A500A2064208C29603488500DD
:10107400C2960348B5006208C29694DB8346D50045
:101084000348E500A2064208C2960348C50003458A
:10109400F500C2966205AA96D4DB83C6150003C583
:1010A4002500A2064205AA9603C50500AA9603C513
:1010B40035006205AA9694CF83C6550003C5650022
:1010C400A2064205AA9603C54500AA9603C5750063
:1010D4006205AA96D4CF83C6950003C5A500A206CF
:1010E4004205AA9603C58500AA9603C5B500620504
:1010F400AA9694D383C6D50003C5E500A20642058B
:10110400AA9603C5C50083C5F500AA96E205AE9666
:10111400D4D3D443F59AD4C3D44393E61600D4C3AA
:10112400944393E6160094C3BA879443D842058B3C
:1011340059E3984E01452300E6009843184F218354
:10114400A300E6009843184F41832301E600984327
:10115400184F6183A301E6009C43D84F2302E600A5
:10116400D84F2183A302E600D84F41832303E6002E
:10117400D84F6183A303E60098532304E6009853F1
:101184002183A304E600985341832305E600985382
:101194006183A305E600D8532306E600D8532183D0
:1011A400A306E600D85341832307E600DC53E1831A
:1011B400A307F600828001008DBF173700001307D4
:1011C400E7221443411122C49C5E4AC006C6998397
:1011D40026C2858B3A84173900001309E920D1CB44
:1011E4009C5E973400009384242193F7F7F99CDEE6
:1011F400173700000347A72093070008631BF70075
:10120400832709009C4393F707041737000023083A
:10121400F71E83C7040093F707049DC397370000A4
:10122400938787FF9C4382979737000023AEA71CC0
:1012340083C7040093F7F70B17370000230EF71A40
:1012440083C7440093F707048DE7854717370000E9
:10125400A306F71A973700009387C71B9C430967B7
:1012640098C7130700FC973600002389E618D84472
:10127400F8D31C40985F1183058B09CB985F3D9B85
:1012840098DF054797360000238AE616985F1D838A
:10129400058B11CB985F1377F7F798DF85471737DE
:1012A4000000230DF71483270900D8430583058B19
:1012B40019C7D843759BD8C3D843799BD8C3B240C8
:1012C40022449244024941018280397106DE16DCCF
:1012D4001ADA1ED82AD62ED432D236D03ACE3ECC02
:1012E40042CA46C872C676C47AC27EC0F935F25084
:1012F400E2525253C2533255A25512568256724785
:10130400E2475248C248324EA24E124F824F2161E8
:1013140073002030973700009387C70F94439737A3
:1013240000009387670D03C70700058B11CB973720
:1013340000002385070C97370000A381070C8280E7
:1013440003C71700058B65F7F85271FF83C7570071
:10135400DDB71738000013086809032708001C5F6D
:101364009583858BD1E709C61C5BBD832300F600FA
:1013740085CA83270800985B46079357670163561D
:10138400070093E707C0C207C18303970600C2079B
:10139400C18709C7BA970947B3C7E7022390F60084
:1013A40085CD834715008DCB9736000083C626056F
:1013B40093F606041387970089478DCA3A95034725
:1013C4000500854699471376F7066311D60262072E
:1013D4006187B947634C0700832708009C5FED834E
:1013E4008D8B17370000A30EF70081473E8582805E
:1013F4008547EDBF411122C406C61734000013040B
:10140400640118403DE9AE877453FDFE3E85B28504
:1014140097370000238307FE974001E0E78060C40C
:1014240097370000938787FC9C43B7068000984356
:10143400558F98C3D857719BD8D797370000A38F7F
:1014440007FA97370000A38907FA1C40094798C395
:10145400144017370000130727FA83472700858BAA
:1014640089EB83473700858BD9C7973700002387DB
:1014740007F8B2402244410182808D476310F5028F
:1014840097370000938787F69C43B70680009843FC
:10149400558F98C3D857719BD8D75DBF8547E3193B
:1014A400F5FA5447F977FD17F58F5CC70F10000064
:1014B4001C40096798C7130700F817360000230F6C
:1014C400E6F217370000130767F21043184231831E
:1014D4000D8B11E713076019F8D3D4C795BF1842D1
:1014E400094631830D8B6315C7001307E043EDB73D
:1014F4001307E01BD5B7FC52ADF3A5BF5D71A2C4C1
:10150400A6C22A84130680022800AE84930510081C
:1015140086C6CAC04EDE52DCEFF06FE53545974013
:1015240001E0E78020F317330000130323EC832743
:1015340003009376F41F173E0000130EEEF223A46B
:101544000700984B973E0000938ECEEC370FFCFFBC
:101554001367F70398CBF84F130510F8B70204008C
:10156400137707E0558FF8CF9843F576FD16758FFE
:1015740098C39843B7063300930380251377F7E79E
:1015840098C3984311497D1F1377F7E71367071032
:1015940098C303270E008549930F80021C47D58FFB
:1015A4001CC783A70E001307900D3400B8CB014766
:1015B40093553700A69583C7050013767700B3D7F4
:1015C400C740858BE1C38327030083280E00239C37
:1015D40007042390070603A8C8021378D8FF23A69C
:1015E400080383A807001378F70793F808F833E88B
:1015F400080123A0070103A847023368580023A267
:10160400070383A80E00014823A2780603DA07061D
:101614006307480303A80703038A06001358F80066
:1016240062081358884163580A0103A80703135832
:10163400F8002380060103D807061378F80F03AADD
:10164400480663060A0003DA8705E37F49FB03A81B
:1016540047023378E80123A2070383870600635C0B
:10166400F40003C805003396C9001346F6FF337629
:1016740006012380C5003E8663D3A7002A8613157E
:101684008601618505071377F70F8506E312F7F3E3
:10169400B640264496440649F259625A61618280F2
:1016A40097360000938606D79C42D8471316170135
:1016B40063550602984713161701635006027D57B7
:1016C400B8D717370000130767B0584F0507173608
:1016D4000000232BE6B0116798C798470D83058B4C
:1016E4001DC317370000034747D113671700173688
:1016F40000002304E6D0130700F817360000230F78
:10170400E6CE214798C79847058B09CF17370000C5
:10171400034797CE1367170017360000A30EE6CCD5
:10172400054798C798470983058B09E798470583B8
:10173400058B31CF9847173600001306E6CB1735D3
:1017440000001305A5CA0983058B6303071018411C
:10175400184331830D8B75EBAC4B184E93F5050292
:1017640003471700CDCD79EF13077006D8CF034791
:1017740006001367170017360000230FE6C611474B
:1017840098C718415C57F19B93E717005CD79C42BC
:1017940098479316370163D606029736000083C62E
:1017A40066DDC18A17370000130747D5C5CE034746
:1017B40087071367070297360000238DE6DA05676B
:1017C40098C798479316270163D10602173700007C
:1017D4000347C7C262076187635707000547973607
:1017E4000000238DE6C0096798C798479316070140
:1017F40063D606029736000083C6D6D7858A173784
:1018040000001307A7CFADCE034797071367270040
:1018140097360000A380E6D6216798C7828029D72F
:1018240085456315B7001307B00689B78945631565
:10183400B7001307F0061DBF8D456315B7001307E6
:1018440030072DB71307500715B71307600739BFC3
:10185400034736001367170017360000A30FE6B8D6
:10186400094739BF834687070946BD8A6388C6008E
:10187400034787078D463D8BE313D7F4114725BFF4
:1018840083469707918AC9DA034797071367870046
:1018940041B7397106DE16DC1ADA1ED82AD62ED4E0
:1018A40032D236D03ACE3ECC42CA46C872C676C48C
:1018B4007AC27EC0F533F250E2525253C2533255CB
:1018C400A255125682567247E2475248C248324ED7
:1018D400A24E124F824F21617300203097370000CF
:1018E400938747B398438567938707777CD3973764
:1018F4000000938767B79C4383A607091396560095
:101904006358060083A6070913966600634406001D
:101914007453FDF2828071C5AA870145E9C58D071C
:10192400C207C183F19BC207C18313074003636FDE
:10193400F702173700001307E7BB08431737000007
:101944001307C7BA14436398A60217370000130796
:10195400678D185B014541CB4111C20706C6054599
:10196400DD8D0297B24001454101828017370000A6
:10197400130707B8D9B70357650035E30357450084
:10198400636FF704B306F7402146637CD60203284D
:101994000500938687001D8FAA96611717360000ED
:1019A400035626832392E60023A006012393060010
:1019B40014C12312F500130786FF97360000239AFB
:1019C400E6802313B5009735000083D58580B3875F
:1019D400F54017270000231EF77E21058280084169
:1019E4009DB70145828082800DC19737000093879F
:1019F40067B003A3070097370000938727AF83A836
:101A0400070081469A8763E31701828003A80700D1
:101A1400636DF50A636BA80A13878700E367E5FE25
:101A240003D66700216705076317E60003C74196DD
:101A340005072382E196972500009385257903D62F
:101A4400470003D765002393070032974207418379
:101A540017250000231FE576638A67021735000007
:101A6400130505A908416303F50203D5660019EDC2
:101A740083D7460023A0060121073E962106239220
:101A8400C600972700002396E774B6879843E30EB1
:101A940017F7973600009386A6A59442E307D7F676
:101AA40083566700BDF283D64700035647001843A8
:101AB400A106B2962392D70098C383D76500A107E5
:101AC400172700002317F7708280BE86C28725BFC0
:101AD4000327851163020712411122C406C68347F6
:101AE400C5008345E5042A8493F7C70F2306F50050
:101AF400834697000356C70013958601618563F2F8
:101B0400C508635B05060345870093F6F607A3043F
:101B1400D700054693E627006314C50093E6170033
:101B24002306D4005C4389075CC3A30AB4000325DD
:101B340004112E864C430905EFE0FFFF832784112F
:101B440003465401D44303D7C700B296118FD4C3BC
:101B54002396E7008947A30DF400034764039727FE
:101B6400000083C7476D6378F7048347C40093E795
:101B740007012306F40081A093E717002306F4006D
:101B84006DB79376F60F635D0502034587008545BF
:101B940013E627006314B50013E617002306C400F8
:101BA400A30AD400A30407008547A30DF4008327E8
:101BB40084119C43DDF3B2402244014541018280FB
:101BC40093E717002306F400A30AD400A304070034
:101BD400032504114C430905EFE0FFF58327841125
:101BE40003465401D44303D7C700B296118FD4C31C
:101BF4002396E7008D4755BF05458280973700003F
:101C0400938787A29C43411122C406C6858B2A84EC
:101C1400C5EF4165130525F597F001E0E780C0E6BF
:101C240045C58347A5002315F50083270412BDE7A6
:101C34002320A4122322A41285472311F404232071
:101C440005008347640154412316F5000347D4007B
:101C54002304E5000547A304E50017270000130744
:101C6400A779184F1385170215811C437D15137529
:101C7400F50F9CC25C43DCC21C479CC65C47DCC6B7
:101C84001C4B9CCA5C4BDCCA1C4F9CCE5C4FDCCE0C
:101C940019CD9386060213070702C1BF8327441296
:101CA40088C3835724042322A412850779B797375E
:101CB400000083D727858507173700002314F7848E
:101CC400B2402244410182808347C40023090400B6
:101CD400054593C747002306F400DDB78347850114
:101CE40093F7E70FD5EF83479501DDEB0346250115
:101CF4008346C50009CA83456503172700000347C7
:101D0400975363E7E50013F7060141CF014709C67E
:101D1400C18A0357651C81C68356A51C369751C3D7
:101D24001307C7121725000003558554B335A702BE
:101D340037460F00411113060624814622C426C2E9
:101D440006C67D543305A702972002E0E78020E20F
:101D54009727000083C7974EB384A70097270000F6
:101D64009387C77903A787098327070963F3870044
:101D74003E84184375FB972700009387E7499C43EB
:101D8400829781476364A400B307A440B24022440D
:101D9400B3B7970093C7170092443E8541018280F0
:101DA40081473E858280972700009387A7669843E2
:101DB4007C53FDFF8280797126D206D622D44AD084
:101DC4004ECE52CC56CA5AC85EC683475503034406
:101DD4007513AA843E941374F40F9307400263F6B8
:101DE40087001304B4FD1374F40F03AA841383AAA5
:101DF400C413A38B841222865285D685972002E0D1
:101E0400E78060D1058915E503CBD41201498149E6
:101E1400337B6403930B50024A865285D685972000
:101E240002E0E78040CF058915C563916903137407
:101E3400F90F238B8412B250225492540259F2495E
:101E4400624AD24A424BB24B456182808509E2091B
:101E540093D989410509E31179FDE1BF83278509F8
:101E640003560504797193D60701BD8EC206C1825B
:101E7400358E1357764093575640898B058B5D8F6B
:101E840093573640918B5D8F93571640A18B5D8F8E
:101E940093171600C18B5D8F9317360093F70702D3
:101EA4005D8F931756009355860093F707041E061B
:101EB4005D8F1376F60F518F93D7554013D6354067
:101EC400118A898BD18F13D67540D18F13D61540C3
:101ED400218AD18F13961500418AD18F139635002C
:101EE40013760602D18F13965500137606049E05C9
:101EF400D18F93F5F50FCD8FA20745465D8F33073C
:101F0400C70222D42A8426D252CC56CA032A841366
:101F1400832AC4135AC806D6369742074183935777
:101F24007740135557400989858BC98F135537401E
:101F34001189C98F135517402189C98F13151700AB
:101F44004189C98F1315370013750502C98F1315FD
:101F5400570093558700137505041E07C98F13771F
:101F6400F70FD98F13D5354013D755401189098BF5
:101F7400498F13D57540498F13D515402189498F51
:101F8400139515004189498F139535001375050282
:101F9400498F13955500137505049E05498F93F5D4
:101FA400F50F4D8F2207D98FB387C7024AD04ECE83
:101FB4005EC662C4B697C207C18313D7774013D5F0
:101FC40057400989058B498F13D537401189498FAB
:101FD40013D517402189498F139517004189498FDB
:101FE4001395370013750502498F1395570093D540
:101FF4008700137505049E07498F93F7F70FD98F50
:1020040013D5354013D755401189098B498F13D502
:102014007540498F13D515402189498F13951500B3
:102024004189498F1395350013750502498F13951E
:102034005500137505049E05498F93F5F50F4D8FD3
:102044002207D98FB387C702130650025285D6855B
:10205400B697BD8E93940601C18033F6C402137BF8
:10206400F60F972002E0E78000AB05890DED83476A
:10207400D41201498149B3849702130C5002C180E0
:102084004A865285D685972002E0E780C0A8058954
:10209400937BF90F11C563863403850993F9F90F0E
:1020A4000509E31F89FD230B6413B2502254925493
:1020B4000259F249624AD24A424BB24B224C456120
:1020C40082805E8BCDB7797122D406D683C7350062
:1020D4002E8423160100A307F10083C745001008CE
:1020E40002C02307F10083C755008A8502C2A306F4
:1020F400F10002C402C802CA02CC02CEEFE09FF093
:102104000347F1018347040001456310F7020347C5
:10211400E1018347140001456319F7000345D10128
:10212400834724001D8D13351500B2502254456198
:1021340082800111972700009387473C22CC03A497
:10214400870C26CA4AC84EC606CEAA84130925009F
:10215400854915C083C7140003473400858B630485
:10216400F700405CFDB71946930544004A85EFE04B
:102174009FA5E31835FF2285F2406244D2444249C8
:10218400B249056182804111972700009387073780
:1021940022C403A4870C26C24AC006C693042500A1
:1021A400054901E82285B240224492440249410192
:1021B4008280A6851305A4023937E30525FF405C18
:1021C400CDB74111972700009387473322C403A456
:1021D400870C26C24AC006C693042500054901E8B7
:1021E4002285B24022449244024941018280A6855C
:1021F4001305A401C93DE30525FF405CCDB70000EC
:1022040097110020938141D417610020130141DF0D
:102214001305400097E5FF1F938585DE1706002010
:10222400130606FE63FAC5008322050023A05500A9
:1022340011059105E3EAC5FE174502001305C5B56E
:10224400970500209385C5FB1386818763FAC50033
:102254008322050023A0550011059105E3EAC5FE7C
:1022640013858187972500209385053D6377B50005
:10227400232005001105E36DB5FEFD42739002BCF9
:102284008D4273904280930280087390023097E2EB
:10229400FF1F9382E2D693E232007390523097226A
:1022A40000009382024A73901234730020303D433D
:1022B4002A876373C3029377F700BDEFADE5937686
:1022C40006FF3D8ABA960CC34CC30CC74CC74107E2
:1022D400E36BD7FE11E28280B306C3408A069702FD
:1022E400000096966780A6002307B700A306B700F0
:1022F4002306B700A305B7002305B700A304B7005E
:102304002304B700A303B7002303B700A302B70055
:102314002302B700A301B7002301B700A300B7004D
:102324002300B700828093F5F50F93968500D58D31
:1023340093960501D58D61B7939627009702000007
:1023440096968682E78086FA9680C1171D8F3E9600
:10235400E374C3F8A5B7B717004003C7770513772D
:10236400E70FA38BE704130700F8A38DE7043D47A9
:10237400238CE70413075003A38CE7048280B71768
:10238400004083C7E7020D8993F7C70FC98F7327EE
:102394000080218B9386818709CB7327008023AC2F
:1023A400E18698425D9B7310078001000100371796
:1023B4000040130670052300C704130680FA2300A7
:1023C400C704010001002307F70223000704732751
:1023D40000809C42A18BD98F7390078023AC018627
:1023E40001000100828041112A83014E930E407E38
:1023F400130F0019930F400663E66E149308001937
:1024040013034006B3781503854E0D4FA14F337364
:1024140065020D891335150063E0BE161308F6FF37
:10242400794672984208135808013307C70213D635
:102434001700BE0732976146B3F6C60213068070D2
:10244400B386C6023697A166F58F42075D8FB7162D
:10245400004083C7F60293F70708A307F100034679
:10246400F10083C7F60293F70708E394C7FE834796
:10247400F100B716004093F7F70F63890714F327A9
:102484000080A18B93868187639807140100010063
:10249400B7170040130670052380C704130680FA9B
:1024A4002380C7040100010023AA070303C61703FE
:1024B40013660608A388C7022380070473260080D6
:1024C4009C42A18BD18F7390078023AC01860100BD
:1024D40001001166B71500407D16DC59C85DA98F4F
:1024E400F18FE5FFF3270080A18B89CBF3270080D0
:1024F40023ACF1869C42DD9B7390078001000100B0
:10250400B7170040130670052380C704130680FA2A
:102514002380C70401000100D8DB03C71703136736
:102524000704A388E70223800704732700809C42E2
:10253400A18BD98F7390078023AC01860100010021
:10254400410182807D133368E3039308E016630E30
:1025540008003368F3039308D016630808009378DF
:10256400330093B818009388D81633081E01131E3D
:102574000801135E0E0149B56393E50305486386BC
:1025840008000148630303002A8871087298FD1546
:10259400131E0801C205135E0E01C181B5BD13F8F7
:1025A400150063F4BF007908D5B713381800E5BFE8
:1025B40083C7F60293F70708A307F1000346F10067
:1025C40083C7F60293F70708E394C7FE8347F10035
:1025D40093F7F70FF1DF65B5F327008023ACF1869D
:1025E4009C42DD9B7390078055B55971E2C486D631
:1025F400A2D4A6D2CAD0CECED2CCD6CADAC8DEC62F
:10260400E6C2EAC06EDE2A8C02D6EF005029F32718
:102614000080A18B138D818791CBF327008023AC9D
:10262400F18683270D00DD9B739007800100010074
:10263400B7170040130770052380E704130780FAD7
:102644002380E7040100010003C7F7021377770F23
:10265400A387E70203C7F70213678700A387E7028C
:10266400238007047327008083270D00A18BD98F53
:102674007390078023AC018601000100F3270080DA
:10268400A18B91CBF327008023ACF18683270D0027
:10269400DD9B7390078001000100B717004013070A
:1026A40070052380E704130780FA2380E704010000
:1026B400010003C7E7021377C70F2387E70203C7A5
:1026C400E702136717002387E702238007047327B1
:1026D400008083270D00A18BD98F7390078023ACD2
:1026E400018601000100130780C13347E5029169A7
:1026F400938709E8130650023D69B7440F00938499
:102704000424856B130BA004014A814A1304700549
:10271400FD19B347F5023307C7023EC2930709A662
:102724001309803E3347F7023AC43347250305496A
:1027340033198901135939403345950293840BFAAF
:10274400B3948401811B3306C702B346F6023309EE
:10275400E90236C6330B670313076055B3049502C9
:10276400130500103309E902B346FB02130B80FA88
:10277400B3C4A40236C8B347F90293963400371998
:10278400004036CC930409043ECA73260080218A93
:1027940011CA7326008023ACC18603260D005D9AFE
:1027A4007310068001000100930770052380F40074
:1027B4002380640101000100034639051376860F66
:1027C400A309C9040346390513661600A309C904FD
:1027D400238004007325008003260D00218A498E7E
:1027E4007310068023AC018601000100916CE17D29
:1027F40073260080218A11CA7326008023ACC18607
:1028040003260D005D9A73100680010001009307F2
:1028140070052380F4002380640101000100034655
:10282400390513660602A309C9040356090533666C
:1028340096012318C904035609053366B6014206F6
:1028440041822318C90423800400732500800326D1
:102854000D00218A498E7310068023AC0186010085
:10286400010003463905137606026307061603467C
:102874003905218A6DDE6810EF009006732600800A
:10288400218A11CA7326008023ACC18603260D0059
:102894005D9A731006800100010023808400238068
:1028A400640101000100034639051376F60DA309FE
:1028B400C9040346390513660602A309C90403566D
:1028C4000905336696012318C904035609053366BE
:1028D400B601420641822318C904238004007325EB
:1028E400008003260D00218A498E7310068023ACD4
:1028F40001860100010003463905137606026309C7
:10290400061003463905218A6DFE97D0FF1FE78024
:1029140040782A8632CE97D0FF1FE78080777246B0
:10292400E30AC5FE0356090532553366960123189A
:10293400C904EF00A07C03463905218A6DDE0355E6
:10294400090503462905924733F5A9003386C902D0
:1029540032951D8DA24763D5A700B2476346F50E95
:1029640009466365560FC247850A1316150093FA84
:10297400FA0F3346F6026354A03A05060945334676
:10298400A60273250080218911C97325008023AC18
:10299400A18603250D005D997310058001000100D7
:1029A4002380840023806401010001000355C902CF
:1029B4002A96420641822316C90223800400732505
:1029C400008003260D00218A498E7310068023ACF3
:1029D40001860100010029BD73260080218A11CAE5
:1029E4007326008023ACC18603260D005D9A731004
:1029F400068001000100238084002380640101001B
:102A040001000346390513660602A309C90425BD5E
:102A140073260080218A11CA7326008023ACC186E4
:102A240003260D005D9A73100680010001002380C7
:102A34008400238064010100010003463905136604
:102A44000602A309C90451BDE38F0AF0732600806E
:102A5400218A11CA7326008023ACC18603260D0087
:102A64005D9A731006800100010023808400238096
:102A7400640101000100034639051375FC0F137648
:102A8400860FA309C90403463905498EA309C9045D
:102A9400238004007328008003260D00218A3366F6
:102AA40006017310068023AC018601000100034671
:102AB40039051D8A6317862773260080218A11CA67
:102AC4007326008023ACC18603260D005D9A731023
:102AD400068001000100238084002380640101003A
:102AE40001000346390511651376F60DA309C904DF
:102AF4000346390513660602A309C90403560905EA
:102B0400498E2318C904035609052165498E2318E3
:102B1400C904238004007325008003260D00218A44
:102B2400498E7310068023AC018601000100034620
:102B3400390513760602630E062003463905218AF9
:102B44006DDE6810712B73260080218A11CA7326EA
:102B5400008023ACC18603260D005D9A73100680A5
:102B6400010001002380840023806401010001002E
:102B74000346390511651376F60DA309C904034606
:102B8400390513660602A309C90403560905498ECB
:102B94002318C904035609052165498E2318C9045D
:102BA400238004007325008003260D00218A498EAA
:102BB4007310068023AC0186010001000346390529
:102BC400137606026303061C03463905218A6DFE4B
:102BD40097D0FF1FE780E04BAA8C97D0FF1FE780B8
:102BE400404BE30C95FF035609051165498E325598
:102BF4002318C904212303463905218A6DDE73266F
:102C04000080218A1385818709CA7326008023AC3A
:102C1400C18610415D9A7310068001000100238073
:102C24008400238064010100010003463905137602
:102C3400F60DA309C9042380040073280080104101
:102C4400218A336606017310068023AC01860100D5
:102C540001000358090503462905E24733F8090131
:102C64003386C90232983308F8401306800C3306C1
:102C7400C802D2473346F6026355001505060948D3
:102C8400334606036351C0140358C9029308F00F76
:102C940013585800329863D6081F094663734619BF
:102CA400F3270080A18B89CBF327008023ACF18626
:102CB4001C41DD9B73900780010001003717004021
:102CC400930770052300F704930780FA2300F704A1
:102CD400010001008356C70289678117D58FC20797
:102CE400C1832316F70223000704732700801C41C5
:102CF400A18BD98F7390078023AC0186010001005A
:102D0400B650265496540659F649664AD64A464B56
:102D1400B64B264C964C064DF25D656182807D165D
:102D2400B1B973260080218A11CA7326008023ACAE
:102D3400C18603260D005D9A731006800100010010
:102D440023808400238064010100010003463905C7
:102D54002DBB73260080218A11CA7326008023AC00
:102D6400C18603260D005D9A7310068001000100E0
:102D74002380840023806401010001000346390597
:102D840013660602A309C90469B373260080218A65
:102D940011CA7326008023ACC18603260D005D9AF8
:102DA40073100680010001002380840023806401E5
:102DB400010001000346390513660602A309C9048C
:102DC400C5B37D166DBD55CE0358C902B308C040C6
:102DD400135858006357180B094663744605F327C4
:102DE4000080A18B89CBF327008023ACF1861C41A2
:102DF400DD9B7390078001000100B71700401307A3
:102E040070052380E704130780FA2380E704010098
:102E1400010003D7C7027D8B2396E70223800704B2
:102E2400E9B573260080218A09CA7326008023AC81
:102E3400C18610415D9A7310068001000100238051
:102E4400840023806401010001000356C902137643
:102E5400F60F33667601420641822316C9022380A7
:102E64000400732800801041218A33660601731020
:102E7400068023AC018601000100050A137AFA0FCB
:102E840029B2F3270080A18B89CBF327008023ACE0
:102E9400F1861C41DD9B7390078001000100B71788
:102EA4000040130770052380E704130780FA23808A
:102EB400E7040100010003D7C70216063A9642064A
:102EC40041822396C70299BF914763EEB702172741
:102ED40002001307A7398A05BA959C41BA978287DD
:102EE400B717004003A7470B1345F5FF698F23AAC3
:102EF400E70A03A7070B698F23A8E70A03A7070AB2
:102F0400798D23A0A70A8280B717004083A6470BB8
:102F14001347F5FFF98E23AAD70A83A6070B558D0D
:102F240023A8A70A83A6070A758F23A0E70A82802D
:102F3400B717004003A7470B498F23AAE70A03A743
:102F4400070B1345F5FF45BFB717004083A6470B92
:102F54001347F5FF758F23AAE70A03A7070A598DBC
:102F64004DB7B717004003A7470B498FEDB79147FB
:102F740063EEB70217270200130787308A05BA9554
:102F84009C41BA978287B717004003A7470D1345A2
:102F9400F5FF698F23AAE70C03A7070D698F23A800
:102FA400E70C03A7070C798D23A0A70C8280B71721
:102FB400004083A6470D1347F5FFF98E23AAD70CCB
:102FC40083A6070D558D23A8A70C83A6070C758F20
:102FD40023A0E70C8280B717004003A7470D498F51
:102FE40023AAE70C03A7070D1345F5FF45BFB71741
:102FF400004083A6470D1347F5FF758F23AAE70CFE
:1030040003A7070C598D4DB7B717004003A7470D09
:10301400498FEDB79357E50093F70730C98FC2077F
:103024000547C1836382E5048DC10947638DE504C7
:103034000D476380E50637170040231FF7088356C2
:103044002709D58F2319F7088280371700400356C4
:10305400670993C6F7FFF18E231BD7088326C70C95
:10306400558D2326A70CC1BF3717004003566709A7
:1030740093C6F7FFF18E231BD7088326870C558D43
:103084002324A70C4DBF3717004083566709DD8EF4
:10309400E1B73717004083566709DD8EE9BFB717DC
:1030A400004003D58700420541819377050491EBE5
:1030B4009377F5013755E801130505803345F5028B
:1030C40082809377050C130700046397E7009377D6
:1030D400F50137459C1CCDB72165130505D08280C9
:1030E40037E700E01C435443A183E206D58F1CC19B
:1030F400FD572320F7182322F71882801317850021
:10310400B7E700E023A0E710618123A2A710828023
:10311400B7F700E08847CC478280814737370040C3
:10312400A14663C4C700328582800345B740E38E5D
:10313400A6FE3385F5000345050085072304A74053
:10314400CDB797F7FF1F938727609C43171700207D
:103154001307874E3E95636EE5001757002013074B
:1031640027CA6368A70017F7FF1F232FA75C3E85B4
:103174008280FD57EDBFB7270040C8C709472380A9
:10318400E70011472380E7008280411122C406C66C
:103194002A8431372947B307E502B2408D83B3D778
:1031A400870222449507B3D7E70237370040C207A6
:1031B400C1832316F74041018280716541111305D3
:1031C400052006C6D937B7370040130770F82381A6
:1031D400E7400D47A381E74013070004A380E740BD
:1031E40005472387E740B240410182809387818865
:1031F4009C43411106C691C382979387C1889C431F
:1032040091C3829703D761809307C01263F7E704E1
:1032140003D581809306B01263E4A60493864188A3
:1032240003A3060063070300B2401305C012410163
:1032340002830507098F3385A740E5473305F50267
:103244004207418309839307F7FF3E953345E5021F
:103254001375F50FB2404101828013054006DDBFAE
:103264000145CDBF03A84500411126C206C622C4AC
:103274008347180003480800A944A207B3E70701DD
:10328400C2070D68C1871308289063960703854712
:103294003284EF700048AA8419ED938701889C4317
:1032A40099CB03451400034704002205598D1335B7
:1032B400150005058297B2402244268592444101B7
:1032C40082802D453DE7D841411122C426C206C65D
:1032D4008347170003470700B684A207D98F0D67F9
:1032E400930697A132846396D702093783C7418036
:1032F4006374F5002382A18085472390F40083C77B
:1033040041802300F4000145B2402244924441012B
:103314008280130787902945E398E7FECC458947C7
:103324002390F4000946228597E0FF1FE780A080E0
:10333400D9BF828083474500858BADC7011122CC5C
:103344002A84035525009385819B06CEEF70203790
:10335400058929C503552400014781460546ED45E5
:10336400EF6050702AC61DC997F7FF1F938747E97E
:1033740083D7A70201462C002314F10085472315A7
:10338400F10083C741802300F50003552400EF803A
:10339400E00F09C5ED452800EF708004F240624457
:1033A400056182808280416541119385819B7D15F1
:1033B40006C6EF80F07EB24097F6FF1F938646E97B
:1033C4004146954517F5FF1F130585E341016F80BD
:1033D400507223A0A1888280411122C406C6854769
:1033E40009446311F502834706000144238EF186E4
:1033F40003C741806378F700170500001305C5F380
:10340400EFB0403B2285B24022444101828085478F
:103414006301F50209C909476302E5020D47630622
:10342400E5020945828083C741802380F500014578
:1034340082809387C18783C70700C5BF97F7FF1FA3
:1034440083D7A7DC2390F500DDB71387C18003572A
:1034540007002392E50017F7FF1F130767DA835667
:10346400A7020357A7032383F5002390D5002391D4
:10347400E50075BF411106C6953B83C74180637A59
:10348400F5002382A180170500001305E5EAEFB0DB
:103494006032B24001454101828041677917630C73
:1034A400E502411122C406C685472A84639AF500C1
:1034B40022852244B2409385819B41016F80506EE6
:1034C40089476396F5008545EFB0402975D1B24030
:1034D4002244410182808280CC41411106C632855A
:1034E40003C6150083C5050022064D8E42068D6570
:1034F4004186138875A2630C060F6348C8041388B9
:1035040045A26306060B634AC800938535A2630986
:10351400B60623900600294679A0138855A26308AD
:10352400060B938565A2E316B6FEC1451D4663EC02
:10353400E5064546198E63F3C7003E862390C60010
:1035440097250200938505D689A8138895A2630060
:10355400060F634E060B1388A5A2630A060F938514
:1035640005A5E318B6FA99451D4663EEE502198EE2
:1035740063F3C7003E862390C6009385418131A83A
:103584009D451D4663E1E5022146198E63F3C7009C
:103594003E862390C60093850189BA9597D0FF1F74
:1035A400E78060590146B240328541018280AD45D1
:1035B4001D46E3EAE5FE3146198E63F3C7003E86F5
:1035C4002390C60097250200938585D1F9B7B145AC
:1035D4001D46E3EAE5FC3546198E63F3C7003E86D3
:1035E4002390C60097250200938585D07DB7C145F9
:1035F4001D46E3EAE5FA4546198E63F3C7003E86A5
:103604002390C60097250200938505CB79B7C14561
:103614001D46E3EAE5F84546198E63F3C7003E8686
:103624002390C60097250200938585CDBDB7C1457B
:103634001D46E3EAE5F64546198E63F3C7003E8668
:103644002390C60097250200938545C8B9B7B545B0
:103654001D46E3EAE5F43946198E63F3C7003E8656
:103664002390C600972502009385C5C23DB797F6FF
:10367400FF1F9386A6D14146CD4517F5FF1F1305BD
:10368400E5BD6F80104782809387C18A9C4303C73E
:10369400018A83C6318201E781473E85828003D651
:1036A40007006316A60003C66700E308D6FE7D176D
:1036B4001377F70FA107C5B7B2862E86AA851725FB
:1036C40002001305E5C86F00F20E01119305000313
:1036D4000D4506CEEF301034930500051145EF304B
:1036E40070339305C0030545EF30D0328547130688
:1036F400F100854513055030A307F100EF70B13C8C
:10370400F240056182808547631AF500116613064D
:1037140086A9894503C5118A6F10E0748947631728
:10372400F500894503C5118A6F10101682808547FC
:103734006398F50019E2238DB1882388C18A8280B9
:1037440009476399E50019E6238DF18803D581893A
:103754006F00D00782809387418A9C43011122CC59
:1037640006CE2E8481CB9C4791C78297F240624457
:10377400056182806C0013057040EF60611432466D
:1037840081452285EF602156D5B701119397050134
:1037940026CA06CE22CC4AC84EC652C4C187AE84BD
:1037A40063DA070803C5118AEF10E01F2A8431CDBC
:1037B400034705009307000D6316F70483472500AC
:1037C4004547638EE7046547639EE70217250200B9
:1037D400130545B4EF00027E130954009309B400A5
:1037E400172A0200130A4AB48345090052850509C1
:1037F400EF00427CE39A29FF17250200130545B325
:10380400EF00F20C2285EF10E0122165258DF240C5
:103814006244D2444249B249224A05618280034645
:10382400650083457500172502001305A5B0EF0058
:103834006278C9BF93F7150085C317F6FF1F1306F7
:1038440066B697F5FF1F938525B503C5118AEF70FA
:10385400C17313C5140065BF93F725000145C5DB8B
:1038640011391166130686A9894503C5118AEF101B
:10387400805F13C5240061BF797126D24ECE06D66F
:1038840022D44AD052CC9147AA84AE896314F50459
:1038940083D7A5001306E100854513055030239C0A
:1038A400F18823070100238D0188EF70D1219387CC
:1038B400418A9C4391C7DC4781C7CE852685829780
:1038C400B250225423AE918802599254F249624A6A
:1038D400456182801387C1891843E31AF7FC854543
:1038E40003D581895D3E854503D58189EF00C07389
:1038F400C16703DA8189F917631BFA02054493054A
:10390400E10013055041238D0188A381818223079F
:103914000100EF50F17A8347E100B1E303C7018B63
:103924009147E316F7F855332388018A49B79387FB
:10393400C18A03A9070003C4018A69D00355290079
:1039440011C99305E100EF70E03C09C54C4552856F
:10395400EF8010257D141374F40F2109F9BF9387A8
:10396400818A9C4383C74700898BCDDB9305000A7A
:103974000D45EF30300A9305000A1145EF309009E8
:1039840081450545EF3010091306E100854513050F
:10399400503023078100EF70111349B70111170547
:1039A40000001305C5DE06CE22CCEF10D02113840F
:1039B400118A85471306F10085452300A4001305E9
:1039C4004041A307F100EF60A1587D55EF60C0515D
:1039D4007D55EF80D0196139F932C12317050000F4
:1039E4001305A5D2FD3217050000130505CAE12B06
:1039F400034504008545EF10002FF2406244056141
:103A0400828023A2B18A23A4A18A828023A6B18AB8
:103A14002380A18A82809387C1899C43797106D6C9
:103A240022D426D24AD04ECE52CC1147639BE7040F
:103A340083C7A189414481CF9387C18A8043B284DB
:103A4400B68983C7018A03C7318299EB554422851D
:103A5400B250225492540259F249624A456182801A
:103A640083464400639AA600834654006396B600D6
:103A7400834664006380E606FD1793F7F70F21047D
:103A8400E9B709474144E384E7FC2C00130550419E
:103A940023040100EF50D162834781008DCB93054D
:103AA40000020D45EF300077930500031145EF3018
:103AB400607695450545EF30E075854730008545CE
:103AC400130550302304F100EF70E17F49B7F53E50
:103AD4004144B5BF0355240093056100EF70802372
:103AE40035D54C4503D58189EF60703D058939DDB5
:103AF4001399040113590901014781464A86ED458A
:103B040003D58189035A0400EF60C0752AC64D4469
:103B14001DDD2686CE85231441012315210197D06E
:103B2400FF1FE780400101462C0003D58189EF7017
:103B3400F0152A84E30D05F0ED452800EF60500AE6
:103B440039B7C841011122CC06CE32840346150090
:103B5400034505002206498E19CB0D681308B8A445
:103B64002D4563090607F2406244056182800D65B4
:103B74001308D5A463000603130825A2630C0601E9
:103B840075781308E85C3298420813580801854890
:103B940063EE080303D5A50036C632C4F534B24635
:103BA40015C19387418A9C4322468345550003A34C
:103BB4000700A2876244F2400345450036878546E4
:103BC4000561028323900600014571BF1308B5A463
:103BD4006317060303D6A1821D45E376C7F8198E41
:103BE40063D3C7003E86CC452390C600420641827B
:103BF400BA95228597D0FF1FE780E0F3F1B79307CA
:103C0400A5A46318F60091472390F6001146CC450D
:103C1400CDB7930785906317F60089472390F60084
:103C24000946F5B79307E5A4631AF600DC4523902B
:103C3400160183C707002300F40079B713057590B4
:103C4400E314A6F8D9BF011122CC06CE26CA4AC86D
:103C54002317D1002D4429EBDC412E89B28403C4FF
:103C6400170083C7070022045D8C8D679386D7A451
:103C74006306D400938627A3631FD4020355A900C7
:103C8400213419E101440DA09387418A9C43834563
:103C940055000345450003A807002286A68713079D
:103CA400E100814602982A842285F2406244D2448B
:103CB4004249056182809386C7A46314D402835762
:103CC400E10005473544E391E7FE0345060013048C
:103CD4000008E3EBA7FC9387418A9C43DC4382976B
:103CE40055B793862790631AD4028356E10085471B
:103CF400EF6030222A844DF99387C18A8356A90044
:103D04009C4303C7018A3DDF03D627006302D60420
:103D14007D171377F70FA107FDB79387E7A4E31384
:103D2400F4F68357E10005473544E39FE7F603457E
:103D3400060013040008E3E9A7F6DC452380A70086
:103D44009387418A9C433335A0000905DC4341BF76
:103D54001387418A184303C5470083C5570083C7A7
:103D640014000328070003C70400A2078946D98F5B
:103D7400C207C18705476383E7008D460D66A687A2
:103D84001307E10013062690029839BF411122C49B
:103D940041641305F4FF9385819D06C626C24AC07B
:103DA400EF8000601305F4FF9385819C97E4FF1F67
:103DB40093840460EF80C05E97E6FF1F9386467984
:103DC4004146E9452685EF80C052CC4C2A890945F5
:103DD400EFF0EFE3138781838346070093874183E2
:103DE4000347170003C617001384819E83C5070089
:103DF400A306E40083D7A40CA30EE40003D7A416FF
:103E0400A302C400A30AC40003D6A4132310F4001D
:103E1400231CE40083D7A40D1387018303D5A410C6
:103E24002318C4000357070003D6A4142311F40075
:103E340085472303F4002306D4002307F400231941
:103E4400C400230ED4002302B4002314A400230AC4
:103E5400B40023150400230B0400231D0400230FC6
:103E640004002312E40203D7A418938501A12303B9
:103E7400F4022310E402231104020D45EFF02FD9BC
:103E8400A2851D456136B24022444A8592440249C6
:103E9400410182808D67138527A36301A60493875C
:103EA400D7A40145631EF6008947639CF500854746
:103EB40035456397F60083470700238BF18A014554
:103EC40082808D472945E39DF5FE85473545E39975
:103ED400F6FE83470700238AF18AD5B7854735451F
:103EE400E390F6FE83470700A389F18AC9BF8D6773
:103EF400138527A36308A6029387D7A46317F60242
:103F04008947639BF50083C7618B2300F7008547CE
:103F14002390F600014582808D476398F50083C79E
:103F2400418BE5B783C7318BCDB723900600DDB74E
:103F34000145828025E303A84500AE888347180025
:103F440003480800A207B3E707010D68930EF8A41D
:103F5400639AD70391473548639FF60203A5C800C7
:103F64004111B285114606C697D0FF1FE780A0BC59
:103F74009387418C9C4305458297B2400148428512
:103F84004101828093082890294863961701854748
:103F94006F6020782D484285828041654111938568
:103FA40001A27D1506C6EF80A03FB24097E6FF1F31
:103FB4009386C6604146994517E5FF1F1305055AC8
:103FC40041016F80003323A2A18C8280011193856B
:103FD40001A222CC06CE2A84EF60606E058929C135
:103FE400014781460546ED452285EF60A0272AC694
:103FF40005C997E7FF1F9387675683D7A70501462F
:104004002C002314F10085472315F100230005003B
:104014002285EF70A04709C5ED452800EF60403CBC
:10402400F24062440561828041677917630CE502BE
:10403400411122C406C685472A84639AF500228565
:104044002244B240938501A241016F8060358947C3
:104054006396F5008545EFA0607075D1B2402244A7
:1040640041018280828011456FE02FD841119396DF
:104074002500AA852D4506C697C0FF1FE780007559
:10408400B240014541018280411126C2939425002A
:1040940022C44AC02A843289A686AA8501462545B7
:1040A40006C697C0FF1FE7806072A6864A86A2856F
:1040B400294597C0FF1FE7806071B24022449244B3
:1040C4000249014541018280011122CC06CE3714F8
:1040D400004026CA4AC84EC652C483447405034AE3
:1040E400B4058349840503499405EFE0CFA68347CB
:1040F400A40593F4F40F137AFA0F93E71700230D32
:10410400F40493F9F90F1379F90FB717004003C7B3
:10411400A705058B6DFF03D5C705A38D4705238C24
:104124003705A38C2705A38B9704F2406244D2443D
:104134004249B249224A056182804111939705019F
:1041440022C406C6C1872E8463DD0700EF00B005D4
:1041540019C1EF00207E2165218DB2402244410126
:10416400828093F7150013C51500E5FB939725018D
:1041740063D00702EF10615CFD3537F602001306C9
:1041840006E0896503C5818CEF00F04D0965E9B748
:10419400939715010145E3D207FC17150200130597
:1041A400E525EFF0D17213060064916503C5818C97
:1041B400EF00704B11654DB71D714946971502000C
:1041C4009385451F171502001305C55C86CE97D04D
:1041D400FF1FE780409F01E9171502001305C51E64
:1041E400EFF0F16E01A0B7F600E0795798CAFD57D9
:1041F400DCCA0567B7E700E023A0E7101306F00266
:1042040090C223A0E718010001001306C0038145F2
:10421400480897D0FF1FE780809597E7FF1F938793
:10422400A7753ECA896793870780231CF100B547A9
:104234002304F102A167938707E03ECEB707010587
:10424400938707103ED0ED472312F10285472303DD
:10425400F102970700009387A7E1BEC49707000007
:104264009387C7E2BEC68567938717D02315F102EB
:1042740097F7FFFF938707EA3EDAB7F5070097073A
:1042840000009387A7E43EDE8146970700009387EA
:10429400C7DD7000E1051945BEC097C0FF1FE78068
:1042A400E05258088147994670003E96034606003E
:1042B40085070507A30CC700E398D7FED24791C72B
:1042C4000357810185676373F70001A04808EF1065
:1042D4004013AA8501C91715020013052510EFF034
:1042E400714D01A0F640256182804111170500003F
:1042F4001305E5E406C622C4EF10E00C1384818C98
:104304002300A4001928034504002244B2401306E4
:104314000032896541016F001035411106C6F3274B
:104324000080A18B1387818789CBF327008023AC7E
:10433400F1861C43DD9B7390078001000100B717D1
:104344000040930670052380D704930680FA2380E7
:10435400D7040100010083C6F70293F6A60FA387D2
:10436400D70223800704F32600801C43A18BD58F3A
:104374007390078023AC018601000100F3270080BD
:10438400A18B89CBF327008023ACF1861C43DD9BF2
:104394007390078001000100B71700409306700571
:1043A4002380D704930680FA2380D70401000100F8
:1043B40083C6F70293E62600A387D7022380070467
:1043C400F32600801C43A18BD58F7390078023AC08
:1043D4000186010001000545EFD07FFA693113051C
:1043E400407E81470147814605468545EFD0BFFFA2
:1043F400B240014541016F10603582803D897D15D1
:10440400954763EAA70E17170200130767FF0A050B
:104414003A951C41011106CEBA9782872C001305E8
:104424004030EF6091562C000545EF40F0731715AE
:1044340002001305A502EFF0914911A803C7250056
:104444008D471715020013056502E306F7FEF240D7
:104454000561828003C725009547E31AF7FE83D7D9
:10446400A5000D6613060620914503C561842392B9
:10447400F184EF00501F171502001305250065BFD6
:1044840003C725008D47E314F7FC17150200130535
:10449400E5FF55B783C7250011471715020013051B
:1044A400A500638EE70219476394E70283C565009C
:1044B4001715020013050501EFF0D12F85473000D1
:1044C4008545130550302304F100EF60D15F41B7F7
:1044D4001547E395E7FE1715020013056500EFF095
:1044E400113FE9BF83C52500171502001305C50058
:1044F400EFF0512CA9BF828001112305A1003400E3
:1045040021468545014506CE23140100A30501007B
:1045140002C6EFF04FD0F24005618280411106C619
:1045240022C43A883E8795EA32830D661306D6A4E0
:104534002A8EAE88834608006319C30089476396B0
:10454400F50085473544639EF6022244B2401A863C
:10455400C685728541016FF0FF9385476398F60025
:104564002244B240C28641016FF07F9889470144DA
:104574006399F6001306401F894503C56184EF0063
:10458400900E2285B24022444101828041119397CA
:10459400050122C406C6C1872E8463DD070003C556
:1045A4006184112111C179262165218DB2402244F3
:1045B4004101828093F7150013C51500E5FB93F7BD
:1045C400450099CF83C761841307401F8146214664
:1045D400A14503D54184EF60B11413454400F9B7F4
:1045E40093F785009DC3014789460946814503D554
:1045F4004184EF60317FAA85171502001305C5E1D8
:10460400EFF0511B1345840055B793F7250001457E
:10461400D1DF9387018D98430DE79307F004238B33
:10462400F18C03C5618DC93D83C5618D17150200E9
:10463400130505E0EFF0111801457D3D13452400F5
:10464400B5B798438547E31EF7FC93070005C1BF40
:104654000111170500001305A5F306CE22CC26CAC6
:10466400EF0070569384618405442380A400700095
:1046740085451305503023068100EF60D14417E6C9
:10468400FF1F130666F4D54513056030EF60B14390
:1046940017E6FF1F1306C6F5BD4513057030EF601E
:1046A4009142171602001306E6D9D5450145EF508D
:1046B40040728D4770009145130570402305F10049
:1046C40023048100A305810002C6A3040100EF5066
:1046D40031083000854513050040EF50710713067B
:1046E4009100854513051040EF5091061306A10073
:1046F400854513052040EF50B1051306B1008545EB
:1047040013055040EF50D104994770008545054585
:104714002306F100EFE05FCCEFF04FE797E5FF1FD2
:10472400938505EC1385C183EFF0AFAD03C5040099
:104734008545552BF2406244D2440561828039712B
:104744001305800406DE22DC26DA4AD84ED652D47B
:1047540097C0FF1FE780609585452165EFE03F81A5
:1047640089452165EFE01F8B37140040E177231F53
:10477400F408B7E400E0370904008545414523A067
:104784002411EFE0CFFE89454145EFE0BF88C147E2
:10479400231FF40823A024118327840C8D451305BB
:1047A400000893E707082324F40CEFE04FFC832769
:1047B400840A21678D45D98F2324F40A2165EFE00B
:1047C400AFF08327840A8D451305001093E7071083
:1047D4002324F40AEFE04FEF8327840A09678D4509
:1047E400D98F2324F40A0965EFE00FEE8327840AA6
:1047F40011678D45D98F2324F40A1165EFE0CFECBE
:10480400514697150200938525A46800EFF0216FA7
:104814008D49154A8144F9E432498327C40C1305B0
:104824002003B3E727012326F40C97C0FF1FE7807A
:1048340000D48327840C3369F9002324240D8504D0
:10484400E39B44FDFD19E39709FC1305401F97C042
:10485400FF1FE780C0D1371400408327840A2167F3
:1048640037950400D98F2324F40A8327C40A130537
:10487400053E93E707102326F40AEFE0DF8F37277E
:104884000040834727008D451305002093E7170058
:104894002301F7004167B7E700E023A0E71083276F
:1048A400840A93E707202324F40AEFE0EFE1EFE022
:1048B400DF90171502001305E5EDEFF05101171510
:1048C40002001305A5C7EFF0E16EEFF0FF8EEFF0E5
:1048D400DFA1EF607151EFF06F8C9D3B97C0FF1F1C
:1048E400E78080E2740013972400369703290700B9
:1048F4008327C40A13052003B3E727012326F40AF8
:1049040097C0FF1FE780A0C68327840A3369F90094
:104914002324240B2DB723AC05FE1C4191E7010091
:1049240001000CC18280BA8703A787FF6DFF23AC07
:10493400B7FE82801DC18346E5FF1307F00F914740
:10494400639EE600411106C697D0FF1FE780C009A9
:10495400B24081473E854101828095473E858280F1
:1049640001E9014582800145B2402244410182802F
:1049740095654111938505D022C4C98D2A842105EA
:10498400C2054205C181418106C697D0FF1FE78059
:1049940080F871D9FD5723200500231285002303D5
:1049A400F5002105D1B7170700201307A7811C4381
:1049B400411122C426C24AC006C601440149BA8430
:1049C40089E7A165D1251DC401A803C7E7FF631AC0
:1049D400A7020DCCA165012E9840832784FF63199B
:1049E400E40217F7FF1F232FF77CFD57232C04FE47
:1049F400230FF4FE2285B24022449244024941012D
:104A0400828011E03E8983A787FF5DBF3E84E5BFB6
:104A1400232CF9FED9BFB1CD411122C406C62A8484
:104A240097F7FF1F83C7577A2E856375F40089476C
:104A340063E8870001370D45B2402244410182807A
:104A440083A785FF99E703C7E5FF9307F00F630585
:104A5400F700CD351545CDB7238F85FE17F5FF1F1C
:104A6400130545764D3D22852244B240A16541019E
:104A74009DAC1545828097F7FF1F23A5077482809C
:104A840097F7FF1F938787799C4399E33E8582803C
:104A940003D727006316B70003C70700E308A7FE80
:104AA400DC47E5B7C9C1797122D406D626D24AD0EB
:104AB4004ECE01444147B3D78540858BA5C312052B
:104AC400314722953305E50297F7FF1F938707794E
:104AD40003A907008544B3948400C204C180BE893D
:104AE4002A990327090011C7032549002EC60297F6
:104AF400B24531473304E40283A709003E941C44C1
:104B040089E72320090023220900B2502254A58DED
:104B140002599254F2492E85456182800504E31CB2
:104B2400E4F88144DDB72E85828041111397050195
:104B340022C406C626C24AC041872E84635E07008B
:104B44009D3511C1C53BA1673D8C2285B2402244ED
:104B54009244024941018280EDD9AA870147414626
:104B6400B356E440858A8DCE9207BA97B146B3878F
:104B7400D70297F6FF1F9386666E03A90600854445
:104B8400B394E400C204C1803E998327090003253D
:104B9400490082972320090023220900258C75B738
:104BA4000507E31FC7FA8144D5BF97F7FF1F938713
:104BB40027679C53411122C406C61384818499C774
:104BC40082971C403E9523A4A18439A097F7FF1F28
:104BD400938747649C43EDF70840B74703009387E6
:104BE400D73F3305F502B7A72600938737ECB240C9
:104BF40022443E9523A4A184410182807DC197F77C
:104C0400FF1F938727619C43797122D426D24AD00F
:104C14004ECE52CC56CA5AC806D65EC63A8AB68911
:104C2400328BAE8A2A89829797F7FF1F938707638F
:104C34009843BE840144B146C147B30BD402330642
:104C44007701104251EAC165938505F0414597D03B
:104C5400FF1FE78040CC1DE597F7FF1F9387475C54
:104C64009C5B2D4589C71145814582972D45B250DE
:104C7400225492540259F249624AD24A424BB24BEC
:104C84004561828097F7FF1F93874759984329E32B
:104C940097F7FF1F23A4A758230005009C4005474E
:104CA4003317870023260500232465012311E5001B
:104CB40023224501DE9723A0270123A2570123A421
:104CC40047010145E38509FA238089004DB73E87F2
:104CD4005C47F5FF48C7C9B70504E310F4F621455E
:104CE40079B70945828097F7FF1F83C7F74D637132
:104CF400F50217F7FF1F13072752931715000843F0
:104D04003E9583570500DD8D2310B5000145828053
:104D14000D45828097F7FF1F83C7174B6373F50216
:104D240017F7FF1F1307474F93171500084393C541
:104D3400F5FF3E9583570500FD8D2310B500014511
:104D440082800D458280130705FF1377F70FFD4717
:104D540063E9E70AB146B306D50297F7FF1F9387C5
:104D6400E74F984389473697184349CF011122CC1E
:104D74004EC60544935945003D893315A4001314C8
:104D84000501418026CA4E85AE84A2854AC806CE56
:104D9400C5392A89814731CDA2854E85A53F97F72C
:104DA400FF1F938727479C43829797F7FF1F83D75B
:104DB400E74B338797022A84814613060064B3B70E
:104DC400970213050732B335E500BE95EFE0B159FC
:104DD400B307850097F6FF1F9386C6483E87D442E3
:104DE40063E4A70063E4D7003387D7402324E900B2
:104DF4008147F2406244D2444249B2493E8505614A
:104E0400828089473E858280011126CA06CE22CC43
:104E14004AC84EC6BD47894463EFA70231473307EA
:104E2400E50297F7FF1F938767439C438944BA972A
:104E34009C4395C305443314A400420441802E8945
:104E44000145A2853539AA89814411C5A285014548
:104E5400D13523A42901F240624426854249D24433
:104E6400B2490561828097F7FF1F83C7F7356364F2
:104E7400F50001458280011197F7FF1F9387873959
:104E840056C283AA070006CE22CC26CA4AC84EC6FA
:104E940052C4638D0A0A17FAFF1F130AAA3C83241B
:104EA4004A00B74736FE938707C8AE8997F5FF1FB8
:104EB40083D5C53BBE94B387C5022A843289814613
:104EC400B3B5C50213850732B337F5001306006482
:104ED400BE95EFE0514963EBA406829A97F5FF1F54
:104EE40083D5C538B3872503AA8413060064814695
:104EF400B3B5250313850732B337F500BE95EFE04C
:104F04009146B3079500BE8403274A0063E4A700D3
:104F140063E4E700B384E740CE852285953601C576
:104F240004C505452DA0936504F0C205C181414522
:104F340097D0FF1FE780209E05E597F7FF1F938713
:104F4400272E9C5B81C7A285114582970145F240BB
:104F54006244D2444249B249224A924A056182805B
:104F640097F7FF1F9387872B9C439DE397F7FF1FBA
:104F740023A6A72A85472326050004C52311350146
:104F840023008500A300F5002322050059BFBA873A
:104F9400D84775FFC8C7F9BF59C9797122D426D239
:104FA4004AD04ECE52CC56CA5EC662C466C206D63B
:104FB4005AC83689328AAE89AA844144314C97FA58
:104FC400FF1F938AAA29854C930B0003330B840398
:104FD40003A70A005A971C43B1E79375F400B395ED
:104FE400BC0013554440C2055286C1811375F50FA8
:104FF4009D3D0DC983A70A000145DA9784C323A206
:1050040037016304090023008900B25022549254EA
:105014000259F249624AD24A424BB24B224C924C58
:10502400456182800504E31374FB2145F9BF0945FA
:105034008280411122C426C24AC006C62A842E890F
:10504400B2841535CA852285EFF09FA305CD97F567
:10505400FF1F83D5A521B38795022A841306006414
:105064008146B3B5950213850732B337F500BE9573
:10507400EFE0712F48C00145B240224492440249F6
:10508400410182802145CDBF411122C426C24AC0BC
:1050940006C62A892E84EFF0BF9EAA8419C1231163
:1050A4000500A2854A85BD3197F7FF1F83C7C71145
:1050B400639B270197F7FF1F83D787155D8C97F7AD
:1050C400FF1F23978714014591E01945B2402244FC
:1050D40092440249410182809307F00263E8A704E5
:1050E4004111B14722C43304F50226C297F4FF1FCD
:1050F4009384C4169C4006C6A297984389470DC35F
:105104009377F5008545B395F500C205C1811181FA
:10511400A53F9C40A29723A0070023A20700814734
:10512400B240224492443E854101828089473E85B3
:105134008280411106C622C4EFF09F9411E5014517
:10514400B24022444101828097F7FF1F9387870C66
:105154009C430045829797F7FF1F9387A7106368C6
:10516400A402D843B74636FE938606C83305A44046
:105174003697E376E5FC13070064B335E50203D6FE
:10518400870081463305E502EFE0F11D55BFD843A2
:105194003A94C1BF411122C426C217F4FF1F13045D
:1051A400640C97F4FF1F938424029448584097F7A3
:1051B400FF1F9387270606C69C436393E6088297DE
:1051C4005440B74736FE938707C8B6973387A7007E
:1051D4003A856364F7006364D7003305D74097F4D6
:1051E400FF1F938424219C4C81CF97F7FF1F938743
:1051F400672794433707CDFF7D179C46F98F9CC6DC
:1052040011E1484097F7FF1F93878701DC5382978A
:1052140019E59C4C8DC3EF00C168EFF0B04B9C4C7A
:1052240099CB97F7FF1F9387E7239843B70633007B
:105234001C47D58F1CC7B24022449244410182804E
:105244008297984897F7FF1F83C7D7FE54401D8F56
:10525400B307A7003E8563E4E700E3E2D7F83385AC
:10526400D740B5BF411106C697F7FF1F23AAA7FE73
:105274000295B24097F7FF1F23A4A7F60145410109
:105284008280994763E9B7008A0597F7FF1F9387E0
:1052940067F6BE9588C1828041117146814517F534
:1052A400FF1F130525F506C697F7FF1F23A807F66A
:1052B40097F7FF1F23A607FA97F7FF1F23AC07F4FE
:1052C40097C0FF1FE780A08A13068002814517F567
:1052D400FF1F130565EF97C0FF1FE7804089EF604C
:1052E400613A97F7FF1F83C717F513D527008D8BF6
:1052F4003E958D473305F502854539051375F50F40
:1053040097F7FF1F2383A7EC99473305F50213058D
:10531400052497C0FF1FE780006017F7FF1F232FA6
:10532400A7F259CD994717F6FF1F034606EA33063D
:10533400F60281451306062497C0FF1FE7802083E9
:1053440097F7FF1F938787F19C439387072417F7E9
:10535400FF1F232FF7E817F7FF1F034707E70A0785
:10536400BA9717F7FF1F2329F7EAEFF0CFF0052BC1
:1053740097F7FF1F9387C7E7944397F7FF1F83C7E8
:10538400B7E413972700369717F6FFFF1306C67185
:1053940010C3138717001377F70F0A07369717F60A
:1053A400FFFF1306C67810C313873700890793F7E6
:1053B400F70F8A0797F5FF1FA388E5E0B69790C318
:1053C400B2404101828097F7FF1F83C7F7DF17F7C9
:1053D400FF1F034787DF63F3E70217F7FF1F130776
:1053E40027E118439386170017F6FF1FA30ED6DC98
:1053F40093962700369708C33E8582809307F00F63
:10540400E5BF1C41638A071641777D8FB7060020EC
:1054140089476314D71603574500630007164111E3
:1054240022C419462A849305F00F690506C697B06D
:10543400FF1FE780E07D05478D47630AE5121C44A2
:1054440081CB5858994763040712185C630107120B
:105454001306C003814517F5FF1F130565DC97B0DC
:10546400FF1FE780C0701306C003A28517F5FF1F56
:10547400130505DB97B0FF1FE780E06B17F7FF1FED
:105484000357C7DA97F7FF1F938787D919E71307DD
:10549400001097F6FF1F239BE6D817F7FF1F03475B
:1054A40007D911E7054797F6FF1F2382E6D817F7B8
:1054B400FF1F0357E7D711E76D4797F6FF1F23999F
:1054C400E6D617F7FF1F034797D611E7154797F658
:1054D400FF1FA38EE6D417F7FF1F034787D511E7F5
:1054E400054797F6FF1F2386E6D417F7FF1F0347E8
:1054F40057D419E703C7F70097F6FF1FA38BE6D22B
:1055040017F7FF1F034707D311E7354797F6FF1F28
:105514002382E6D217F7FF1F034717D219E71307B1
:10552400800297F6FF1FA389E6D017F7FF1F0347F2
:1055340077D019E71307D00297F6FF1FA38CE6CEA6
:105544000347840119E71307C00397F6FF1F238558
:10555400E6CE9C5791C7829797F7FF1F239AA7C659
:10556400FD5717F7FF1FA301F7F63D338147B240FC
:1055740022443E854101828089473E858280011113
:105584004EC697F9FF1F9389E9CD83A7090006CE7C
:1055940022CC26CA4AC852C4829713090064B33580
:1055A400250303DA89008146528633052503EFE09B
:1055B400815B97F7FF1F938727C1804FAA8401451A
:1055C4006306940233858440636E940003A5490006
:1055D40052868146B335A9023305A902EFE0A158EA
:1055E400018D269597F7FF1F23AC97BEF2406244C6
:1055F400D2444249B249224A05618280011122CC37
:105604000A852E84414697050200938525C506CE5A
:10561400EFE0F10E180806043A94035504FF97F7D7
:10562400FF1F83D7C7C4F2406244AA9737450F00CF
:10563400130505243355F5020561828097F7FF1F92
:1056440083D7E7C251471D45637CF7027947194563
:105654006378F7021307200315456373F7021307F2
:10566400B0041145637EF700130740060D456379C6
:10567400F7001307600909456374F70013B5B70F02
:105684008280011122CC06CE2A842EC6EFF0EFD1FF
:10569400B245F240818D33A5A5022295624413756B
:1056A400F50F05618280011122CC06CE2A842EC614
:1056B400EFF0AFCFB245F240818D33A5A50222951C
:1056C40062444205418105618280011122CC06CEEB
:1056D4002A842EC6EFF06FCDB245F240818D33B5EA
:1056E400A502229562440561828097F7FF1F938784
:1056F40027B3985739CB411122C426C206C6BE84AB
:10570400029717F7FF1F0357A7AC2A8415CBBA8754
:105714006373A700AA87C207C183BA866373E400D0
:10572400A286C206C182958F5147635BF700DC54A1
:1057340091C38297EF00610097F7FF1F239A87A810
:10574400B2402244924441018280828097F7FF1F35
:10575400938707ADDC57011106CEAA8581C72AC6F7
:105764008297B245C1C59C410545B5CFDC41A5CF63
:1057740083D78500ADCB83D7A500B5C783C7C50044
:10578400BDE3414617F5FF1F1305C5AD97B0FF1FD5
:10579400E780603A97F7FF1F9387C7AC9C4317F7DE
:1057A400FF1F2329F7A697F7FF1F83C7F7A88DE7E5
:1057B4009307800217F5FF1F035545AB3305F50228
:1057C40037460F001306062481468145EFE0A139D0
:1057D40097F7FF1FA382A7A617050000130565DA34
:1057E400EFF05FA80145F2400561828097F7FF1F43
:1057F40083C767A41397870161876354070497F7E6
:10580400FF1F23A1079E97B7FF1F9387C77517F73D
:10581400FF1F2329F7A47D5797F7FF1F23A6E7A4AB
:10582400B7873200938727A197F6FF1F23A0F6A41A
:1058340097F7FF1F238E07A2B7C7004023A4E726CC
:1058440091BF13F7170005CFB7872003938707D0BD
:1058540017F7FF1F232CF7A0B707C0A817F7FF1FE0
:105864002324F7A097B7FF1F9387077317F7FF1F2A
:10587400232AF79E97F7FF1F238C079E21BF61778A
:1058840097F6FF1F2394E69E81CB9307003217F708
:10589400FF1F231EF79CC9B793072003CDBF011137
:1058A40022CC17F4FF1F1304A497084406CE26CA7B
:1058B4004AC801E90545F2406244D24442490561BF
:1058C40082805C58E5DB185C75D77000854582974B
:1058D4001844B247E300F7FE9305E00417F5FF1FF1
:1058E4000355C59497C0FF1FE780E00217F7FF1F19
:1058F400232CA78E61D117F6FF1F03562693930519
:10590400F00F97B0FF1FE7808026814417F9FF1F2F
:105914001309898B97F7FF1F83C767910326090231
:1059240063C1F402328597C0FF1FE780E00B014595
:1059340097F7FF1F23AA078A97F7FF1F23A8078A51
:105944009DBF97F5FF1F83D5658EB38795020844E5
:10595400185C898185043E9508C2029765BF0111D0
:1059640056C297FAFF1F938AAA8B83A78A0022CC78
:105974004AC84EC606CE26CA52C45AC0AA892E8424
:1059840032896385072203A74A03630707147D4707
:105994006366A71497F4FF1F9384048303AA040285
:1059A40063170A0A9565938515E017F5FF1F0355DC
:1059B400E58797C0FF1FE78000F697F7FF1F23A531
:1059C400A7822A86630A051083A74A0303A58A00CF
:1059D40097F5FF1F83D585858981829783A78A00E0
:1059E40003AA040217F7FF1F2322F7808947639C49
:1059F400F908C1476312F40E97F5FF1F83D5058399
:105A0400938505FC9147B3C5F5028A05D29503C772
:105A140005009307A005631DF70A83C71500639962
:105A2400370B4A852286910597B0FF1FE780A010A7
:105A34009C505285639347150145F2406244D24419
:105A44004249B249224A924A024B05618280D850A7
:105A5400E38EE7F89565938525E017E5FF1F035569
:105A6400E57C97C0FF1FE78000EB2A8A35C52A86AC
:105A740083A74A0303A58A0097E5FF1F83D5057B07
:105A840089818297A5B78D47639DF900C147631546
:105A9400F40497E5FF1F83D56579938545FDF19956
:105AA400B5B79147639AF9006318340397E5FF1F6C
:105AB40083D5C577A115E5B7C147639FF900A14711
:105AC40063EC870097E5FF1F83D54576C115C1BFF9
:105AD4009C5052856397470D294585B71307F006F7
